:100000000C9446000C946C000C946C000C946C00E6
:100010000C946C000C946C000C943A020C946C00E0
:100020000C946C000C946C000C946C000C94000804
:100030000C946C000C946C000C9460070C946C0095
:100040000C946C000C946C000C946C000C946C0080
:100050000C946C000C946C000C946C000C942208B2
:100060000C946C000C946C009D02190371026702E1
:100070006E02FB02F0027E09620862087B098709B2
:1000800077098E098A0992094B091D0911241FBE9F
:10009000CFEFD8E0DEBFCDBF14BE88E10FB6F89435
:1000A00080936000109260000FBE11E0A0E0B1E00C
:1000B000ECE9FBE102C005900D92AC30B107D9F735
:1000C00013E0ACE0B1E001C01D92A231B107E1F74D
:1000D0000E94C10A0C94CC0D0C94000020911001D8
:1000E00030E0C901880F991F820F931F880F991F55
:1000F000880F991F8F5C9E4F0895FC012081E0912D
:1001000010012E1770F48E2F90E0821B9109803120
:100110009105ACF4FC01EF5EFE4F80818F5F808320
:10012000089530E0F0E0C9018E1B9F0B41973CF031
:10013000E21BF30BEF5CFE4F80818F5F808308959D
:10014000CF92DF92EF92FF920F931F93CF93DF93A3
:10015000C1E3D1E06AE3E62E61E0F62E71E1C72E3D
:1001600071E0D72E8601802F8C198883F7011082C9
:10017000CE010E94250A9B878A87F80111928F0180
:100180002C96FCE0EF0EF11C22E0C13BD20759F7A0
:100190000E9411044091D7025091D8026091D90277
:1001A0007091DA02E4E08E9FC0011124AA2797FD26
:1001B000A095BA2F840F951FA61FB71F8093D70253
:1001C0009093D802A093D902B093DA02DF91CF9135
:1001D0001F910F91FF90EF90DF90CF900895809145
:1001E000D7029091D802A091D902B091DA02B695C7
:1001F000A79597958795B695A795979587958F71AC
:10020000809310018111089581E10E94DC0784E64A
:1002100090E00E94A60380E00E94DC07E1E1F1E0AB
:1002200060E040E050E020E030E002C0AC01672F29
:100230007081729FC001739F900D1124840F951FD0
:10024000760F11922F5F3F4F2032310579F790934F
:10025000B3028093B2027093B1027723A1F2672FA9
:1002600070E00E94E70A7093B3026093B20280913B
:10027000D7029091D802A091D902B091DA02660F0C
:10028000771F660F771F861B970BA109B109809313
:10029000D7029093D802A093D902B093DA020895BE
:1002A000089580E090E008950895DF92EF92FF9224
:1002B0000F931F93CF93DF93F89414B817B81AB81D
:1002C00015B818B81BB8529A5A9A14BC85E085BD67
:1002D0008FEF87BD22E020936E0010928000109275
:1002E00081008FE89BE090938900809388002093A1
:1002F0006F005398239881EA8093B0002093B10057
:100300001092B4001092B3008BE080BF83E0809322
:100310007F0086E080937C0083E880937A00809160
:100320007A00806480937A0080917A0086FDFCCF09
:1003300010927C0083EA80937A0081E080937B00B6
:1003400081E090E00E94620D8F3F11F08093660083
:100350001092DB02C1E0C093B402C093F802109285
:10036000D20210920C0380E990E00E94620D80930B
:10037000D1028091D102887311F0C093D102109202
:10038000FC021092FB028FEF90E09093FA028093B0
:10039000F9021092D7021092D8021092D90210924C
:1003A000DA0281E080930F0182E49FE090930B03D7
:1003B00080930A0380EB90E00E94620DC82F81EBCE
:1003C00090E00E94620D2C2F30E0382B30930E030A
:1003D00020930D0385E090E00E94620D809311034D
:1003E00089E090E00E94620D8093FD028CE090E035
:1003F0000E94620D80930F0384E190E00E94620DE1
:10040000809310035CEDE52E52E0F52E05EB12E033
:10041000C0E2D0E0CE010E94620DD82ECE0101963E
:100420000E94620D2D2D30E0322F2227282BF7015C
:10043000219331937F01CE01C0960E94620DD82E88
:10044000CE01C1960E94620D2D2D30E0322F222761
:10045000282BF801219331938F012296CC33D105BB
:10046000C9F67894DF91CF911F910F91FF90EF9093
:10047000DF9008951F920F920FB60F9211248F9361
:1004800088E10FB6F89480936000109260000FBE70
:100490008F910F900FBE0F901F9018957C01EB016C
:1004A000D12C88248A9464E0B62E76E0972EE3E877
:1004B000AE2E08E110E0F9E2CF2EE0910F01F0E05E
:1004C000E730F105D0F7EC5CFF4F0C940F0BDD200B
:1004D00009F4FDC0B0920F01DD24D394FE0109950B
:1004E000ECCF8091DB028111EBC0F89490927C00FC
:1004F000A0927A0080917A00806480937A00809143
:100500007A0086FDFCCF20917800309179007894B4
:100510002B3A92E039070CF0EDC02938E2E03E07B3
:100520000CF0EFC0273632400CF4CAC0559A549AEA
:100530003B9A3A9A3D983C98C0CFF89480B7877F11
:1005400080BF80917A008F7780937A0014B817B8B3
:100550001AB815B818B81BB80FB6F894A895009338
:1005600060000FBEC0926000809160008064809344
:10057000600083B7817F846083BFF89483B7816014
:1005800083BF7894889583B78E7F83BF78941092C9
:10059000DB02529A5A9A80917A00806880937A009E
:1005A00087E592E00197F1F700C0000080B788610D
:1005B00080BF559A549A3B9A3A9A3D9A3C9AEFE1F9
:1005C000FEE43197F1F700C000008091DB02811159
:1005D00081C0559854983B983A983D983C986DCF77
:1005E00080910D01811141C01092B3001092B400AE
:1005F00010920E0162CF4899ECCF559A54983B98CF
:100600003A983D983C988FEC97E00197F1F700C03D
:100610000000559854983B983A983D983C989FEF25
:10062000E1EEF4E09150E040F040E1F700C000005E
:1006300044CF559854983B9A3A9A3D983C98EFECA1
:10064000F7E03197F1F700C00000559854983B98B7
:100650003A983D983C98FFEF21EE84E0F15020401D
:100660008040E1F700C0000028CF90910D018091FB
:100670000E01981709F421CF80910D0180930E018E
:1006800080910D01813009F450C080910D011092CC
:10069000B3008092B4008230D9F18092B30080928E
:1006A000B4008FE295E70197F1F700C00000809158
:1006B000100390910F039093B3008093B400FDCE8C
:1006C000559A549A3B983A983D983C98F6CEF70143
:1006D000099500CF559A549A3B983A983D983C9882
:1006E000FFEF20E782E0F15020408040E1F700C0BA
:1006F00000006FCF559854983B9A3A9A3D983C9891
:10070000DCCE559854983B983A983D9A3C9AD5CE71
:10071000EFE2F5E73197F1F700C000008091FD02AC
:100720001092B3008093B400C8CE8092B3001092B0
:10073000B4008FE295E70197F1F700C000008091C7
:1007400011038093B3001092B400B7CE07C0EFEC52
:10075000F7E03197F1F700C0000001970097B9F773
:1007600008958093B3006093B40008958FEF809351
:10077000B3008093B4008FE090E0EFECF7E03197A6
:10078000F1F700C0000001970097B9F70895809134
:10079000DB0281111EC0F89487E080937C0083E81F
:1007A00080937A0080917A00806480937A008091AF
:1007B0007A0086FDFCCF80917800909179001092AC
:1007C0007C0023EA20937A0021E020937B00789438
:1007D00008958FEF9FEF08958091DB0281111EC075
:1007E000F89488EC80937C0087E880937A0080916D
:1007F0007A00806480937A0080917A0086FDFCCF35
:10080000809178009091790010927C0023EA2093E7
:100810007A0021E020937B00789408958FEF9FEF7A
:1008200008951F93CF93DF9360E070E080E013EAB8
:10083000D1E0C6E0B3E8E1E0F0E020E830E0F89491
:10084000C0937C00B0937A0090917A00906490936A
:100850007A0090917A0096FDFCCF409178005091FB
:100860007900A42FA17090917A00906490937A00FF
:1008700090917A0096FDFCCF4091780050917900DC
:1008800010927C0010937A00D0937B007894417092
:10089000A41305C0215031092115310581F6AA2381
:1008A00039F09F01062E01C0220F0A94EAF7822B2D
:1008B0006F5F7F4F6830710509F0BFCFDF91CF9137
:1008C0001F91089580910001982F990F990F990F0A
:1008D000982780910C0121E0280F20930C01869528
:1008E0008695892792959695977089278093000120
:1008F00008958093000108958091DB02811116C054
:10090000F89486E080937C0083E880937A0080915D
:100910007A00806480937A0080917A0086FDFCCF13
:100920008091780090917900789408958FEF9FEFEF
:1009300008952F923F924F925F926F927F928F9283
:100940009F92AF92BF92CF92DF92EF92FF920F935E
:100950001F93CF93DF9300D000D000D0CDB7DEB788
:100960008C01DC0112960D90BC91A02DBE83AD834D
:10097000A438E3E0BE070CF0CAC08091B5029091A4
:10098000B6028A179B0708F4A9C16090B70270905D
:10099000B8026A167B0608F427C26090B90270900C
:1009A000BA026A167B0608F428C26090BB027090F7
:1009B000BC026A167B0608F429C26090BD027090E2
:1009C000BE026A167B0608F42AC26090BF027090CD
:1009D000C0026A167B0608F48BC16090C102709059
:1009E000C2026A167B0608F423C26090C3027090AC
:1009F000C4026A167B0608F424C26090C502709097
:100A0000C6026A167B0608F425C26090C702709081
:100A1000C8026A167B0608F426C26090C90270906C
:100A2000CA026A167B0608F427C26090CB02709057
:100A3000CC026A167B0608F42DC26090CD0270903D
:100A4000CE026A167B0608F42EC26090CF02709028
:100A5000D0026A167B0608F42FC280E090E0A0ED79
:100A6000B0E489839A83AB83BC838CE0E82EF12CBD
:100A7000F701EE0FFF1FEB54FD4F80819181B30111
:100A8000681B790B80E090E00E94130C9B01AC0185
:100A90000E94160B6B017C01AD81BE81BD018827D0
:100AA00077FD8095982F0E94150C4B015C01B301D6
:100AB00080E090E00E94130C2B013C0129813A81D7
:100AC0004B815C81C701B6010E94A10C9B01AC0166
:100AD000C301B2010E94150B9B01AC01C501B40119
:100AE0000E94150B20E030E040E251E40E94A10C8E
:100AF0000E94E20B5B01C701B6010E94E20BAB0151
:100B0000BC01C501BA010E94FB0A762EE8C0772419
:100B10007A94D801AD90BC908091DC029091DD0276
:100B20008A159B0508F46FC00091DE021091DF0268
:100B30000A151B0508F45CC10091E0021091E10266
:100B40000A151B0508F45DC10091E2021091E30251
:100B50000A151B0508F45EC10091E4021091E5023C
:100B60000A151B0508F45FC10091E6021091E70227
:100B70000A151B0508F4D8C00091E8021091E9029B
:100B80000A151B0508F458C10091EA021091EB0206
:100B90000A151B0508F459C10091EC021091ED02F1
:100BA0000A151B0508F45AC10091EE021091EF02DC
:100BB0000A151B0508F45BC10091F0021091F102C7
:100BC0000A151B0508F45CC10091F2021091F302B2
:100BD0000A151B0508F459C10091F4021091F502A1
:100BE0000A151B0508F45AC10091F6021091F7028C
:100BF0000A151B0508F45BC11AE5BFEF7B1207C09D
:100C000081E2810F52C010E0BFEF7B16C9F3ED8186
:100C1000FE81BF01882777FD8095982F0E94150CD3
:100C20006B017C01672D70E080E090E00E94130C66
:100C30004B015C01A701960160E070E081E694E45D
:100C40000E94150B9B01AC01C501B4010E94A10CCF
:100C50004B015C01612F70E080E090E00E94130C7A
:100C60002B013C0120E030E04FE254E4C701B60123
:100C70000E94150B9B01AC01C301B2010E94A10CA3
:100C80009B01AC01C501B4010E94160B20E030E0CD
:100C900048E453E40E947A0B20E030E044E052E460
:100CA0000E94160B0E94E70B862F26960FB6F8942B
:100CB000DEBF0FBECDBFDF91CF911F910F91FF908F
:100CC000EF90DF90CF90BF90AF909F908F907F90EC
:100CD0006F905F904F903F902F900895712CED8111
:100CE000FE81ED3BF2400CF014CF81E2870DDDCFA9
:100CF00065E085E090E07C01F1E0EF1AF10870E03A
:100D000080E090E00E94130C20E030E040E05FE3E0
:100D10000E94A10C20E030E0A9010E94160B69831B
:100D20007A838B839C83A4CE75E0672EE5E0F0E0A8
:100D3000EE0FFF1FE652FD4F80819181B801681BC5
:100D4000790B80E090E00E94130C9B01AC010E94A3
:100D5000160B6B017C01B501882777FD8095982FD4
:100D60000E94150C4B015C01B80180E090E00E94EC
:100D7000130C1B012C01662D70E080E090E00E94B6
:100D8000130C20E030E040E05FE30E94A10C20E083
:100D900030E0A9010E94160BA70196010E94A10C48
:100DA0009B01AC01C201B1010E94150B9B01AC017A
:100DB000C501B4010E94150B20E030E040E251E48F
:100DC0000E94A10C0E94E20B8B01C701B6010E9498
:100DD000E20BAB01BC01C801BA010E94FB0A162F4D
:100DE0006F3F09F011CF81CF61E081E090E083CFC8
:100DF00066246394E1E0F0E09BCF62E082E090E063
:100E00007ACFA2E06A2EE2E0F0E092CF63E083E0E6
:100E100090E071CFF3E06F2EE3E0F0E089CF64E083
:100E200084E090E068CFE4E06E2EE4E0F0E080CF74
:100E300066E086E090E05FCF66E0662EE6E0F0E0F8
:100E400077CF67E087E090E056CF57E0652EE7E088
:100E5000F0E06ECF68E088E090E04DCF48E0642E8F
:100E6000E8E0F0E065CF69E089E090E044CF39E068
:100E7000632EE9E0F0E05CCF6AE08AE090E03BCFEF
:100E80002AE0622EEAE0F0E053CF9BE0692EEBE02F
:100E9000F0E04ECF6BE08BE090E02DCF8CE0682E41
:100EA000ECE0F0E045CF6CE08CE090E024CFBDE0DA
:100EB0006B2EEDE0F0E03CCF6DE08DE090E01BCFDD
:100EC0001F920F920FB60F9211242F933F934F93BF
:100ED0005F936F937F938F939F93AF93BF93EF93A2
:100EE000FF938091FB029091FC022091F9023091D6
:100EF000FA02820F931F9093FC028093FB028FEF04
:100F000090E09093FA028093F9028FEF87BD809171
:100F1000D7029091D802A091D902B091DA0201963D
:100F2000A11DB11D8093D7029093D802A093D9023E
:100F3000B093DA028091DB0281110FC080910A0325
:100F400090910B032091FB023091FC0282179307D2
:100F500020F480910F01843089F0FF91EF91BF91CF
:100F6000AF919F918F917F916F915F914F913F9141
:100F70002F910F900FBE0F901F901895E0910301D5
:100F8000F09104010995009741F30E943E0A8111F6
:100F900009C00E94520D99279093FA028093F9029A
:100FA00087BDDBCFE0910101F0910201099510921C
:100FB000FC021092FB02D1CF80FF11C0559A81FF35
:100FC00011C0549A82FF11C03B9A83FF11C03A9A14
:100FD00084FF11C03D9A85FD11C03C980895559835
:100FE00081FDEFCF549882FDEFCF3B9883FDEFCF8B
:100FF0003A9884FDEFCF3D9885FFEFCF3C9A089556
:101000001F920F920FB60F9211248F939F931092FD
:101010008100109285001092840081E08093B402D8
:101020008093F8021092DB0210927C0093EA909376
:101030007A0080937B009F918F910F900FBE0F904D
:101040001F9018951F920F920FB60F9211242F9395
:101050003F934F935F936F937F938F939F93AF9340
:10106000BF93CF93DF93EF93FF9320918400309150
:10107000850041E04093DB028091B4028823A9F10E
:1010800010928500109284004093810010920C030E
:101090001092B4028091F8028823A1F080917A0026
:1010A00086FDFCCF80917800909179009093D602D4
:1010B0008093D50281E080937C0093EA90937A003C
:1010C00080937B00FF91EF91DF91CF91BF91AF9122
:1010D0009F918F917F916F915F914F913F912F9150
:1010E0000F900FBE0F901F901895C9018758910956
:1010F0008437994008F04FC026583109A4EFB0E07A
:101100000E94D80AAA27BB27883008F47BC04093E6
:10111000B4028091F802811152C08091D202E82F6E
:10112000F0E0E250FD4F90910C0390838F5F80932D
:10113000D2028C3039F61092810010928500109204
:1011400084004093F8021092DB02C0910803D09112
:1011500009038EEF92E00E94250AC817D90709F00B
:10116000B1CF8091070387FF5EC098E7980F933057
:1011700030F0539823981092B4001092B30090E08E
:10118000FC01E058F109EB30F10508F09BCFE55C7C
:10119000FF4F0C940F0B109281001092850010925B
:1011A00084004093B4024093F8021092DB02109244
:1011B0007C0083EA80937A0040937B0083CF809108
:1011C0007A0086FDFCCF8091780090917900909311
:1011D000D4028093D30210927C0083EA80937A0039
:1011E00081E080937B0090910C039923B9F01092D9
:1011F000810010928500109284008093F802109272
:10120000DB0260CF21E030E001C0220F8A95EAF7CF
:1012100080910C03822B80930C0354CF1092F80220
:101220001092D2024FCFE0910501F091060163EDDB
:1012300072E08EEF92E0099545CF8091FE028230F8
:1012400009F4DCC008F4B9C0833009F4C5C08430A7
:1012500009F0B0C080910D0190910403833009F42E
:10126000E2C08091030310920E0123E020930D0150
:1012700080930F039093100380910F01863009F43F
:1012800021CF539A239A1092B4001092B30086E0B3
:1012900080930F0117CF80910F01863099F0539AF8
:1012A000239A1092B4001092B300559854983B982A
:1012B0003A983D983C9810920D0110920E0186E0EC
:1012C00080930F0181E090E00090FE0202C0880F41
:1012D000991F0A94E2F720910D0330910E038223A7
:1012E0009323892B09F086C010920D01EBCE81E08B
:1012F00080930F01E7CEE0E0F0E0099580916E0069
:101300008D7F80936E0016BCE0E0F0E709951092A7
:101310000F01D8CE82E080930F01D4CE85E0809378
:101320000F01D0CE80910F01833009F4CBCE809194
:101330000F01843009F4C6CE539A239A1092B40058
:101340001092B30083E080930F01BCCE80910F0117
:10135000863009F0B7CE60910D0380EB90E00E94DB
:101360006A0D60910E0381EB90E00E946A0D60911E
:10137000110385E090E00E946A0D6091FD0289E012
:1013800090E00E946A0D60910F038CE090E00E9453
:101390006A0D6091100384E190E00E946A0D5398F9
:1013A00023981092B4001092B30081E080930F0153
:1013B0008091FE02811160CF85CE882339F2813081
:1013C000C9F78091FF029091000390930E038093E0
:1013D0000D0310920D0150CF80910D01823071F1FB
:1013E0008091020310920E0192E090930D01809380
:1013F000FD0242CF81E080930D0164CE80910D010A
:10140000813051F08091010310920E0191E0909390
:101410000D018093110330CF80910103909111034E
:101420008913F2CF29CF8091100398131ACF80919E
:10143000030320910F03821316CF1ECF8091020366
:101440009091FD028913CECF17CFFC012AE08FEFD8
:101450009FEF31918327082E8295807F8025092E6A
:10146000982F82958F700826869598278927880F50
:10147000880F880F8025215061F708950FB6F894E2
:10148000A4B12091D1022A2B24B921E03091D102BC
:10149000203029F0000025B1232B25B904C000001D
:1014A0000000000000C0000000000000309525B1E1
:1014B000232325B92EEA2A95F1F72BEE30B735FF15
:1014C0000AC0A4B93091D102309525B1232325B9A2
:1014D0000FBE80E0089500002A9581F721E0309149
:1014E000D102203029F0000025B1232B25B904C0FA
:1014F00000000000000000C0000000000000309567
:1015000025B1232325B9000024E52A95F1F7FC0134
:101510008CE0619170E0660F771F616072609AE005
:1015200041E050E09A0126233723232B3091D1024A
:10153000203029F0000025B1232B25B904C000007C
:101540000000000000C0000000000000309525B140
:10155000232325B9000021E52A95F1F7440F551FF3
:101560009A9501F78A95A9F620B7206120BFA4B902
:101570003091D102309525B1232325B90FBE81E0EA
:1015800008950E9455018EE690E0909304018093A7
:1015900003018DE790E090930601809305016FEEC3
:1015A00070E080EA90E00E944E0280E090E00895B2
:1015B000A29FB001B39FC001A39F700D811D112494
:1015C000911DB29F700D811D1124911D0895AA1BBC
:1015D000BB1B51E107C0AA1FBB1FA617B70710F01E
:1015E000A61BB70B881F991F5A95A9F78095909550
:1015F000BC01CD01089597FB072E16F4009407D087
:1016000077FD09D00E94E70A07FC05D03EF49095CB
:1016100081959F4F0895709561957F4F0895EE0FC6
:10162000FF1F0590F491E02D09945058BB27AA277D
:101630000ED04DC13ED130F043D120F031F49F3F68
:1016400011F41EF433C10EF4E095E7FB29C1E92F34
:101650004FD180F3BA17620773078407950718F014
:1016600071F49EF567C10EF4E0950B2EBA2FA02DF4
:101670000B01B90190010C01CA01A0011124FF273F
:10168000591B99F0593F50F4503E68F11A16F0403A
:10169000A22F232F342F4427585FF3CF4695379539
:1016A0002795A795F0405395C9F77EF41F16BA0BFE
:1016B000620B730B840BBAF09150A1F0FF0FBB1FAC
:1016C000661F771F881FC2F70EC0BA0F621F731FF5
:1016D000841F48F4879577956795B795F7959E3F52
:1016E00008F0B3CF9395880F08F09927EE0F9795E0
:1016F000879508950CD0EBC0E3D040F0DAD030F0FD
:1017000021F45F3F19F0CCC0511115C1CFC0F0D00A
:1017100098F39923C9F35523B1F3951B550BBB27B8
:10172000AA2762177307840738F09F5F5F4F220F65
:10173000331F441FAA1FA9F333D00E2E3AF0E0E85E
:1017400030D091505040E695001CCAF729D0FE2FAA
:1017500027D0660F771F881FBB1F2617370748073C
:10176000AB07B0E809F0BB0B802DBF01FF279358F2
:101770005F4F2AF09E3F510568F092C0DCC05F3F8A
:10178000ECF3983EDCF3869577956795B795F795DA
:101790009F5FC9F7880F911D9695879597F90895D2
:1017A000E1E0660F771F881FBB1F6217730784076E
:1017B000BA0720F0621B730B840BBA0BEE1F88F77D
:1017C000E095089504D06894B111B5C0089598D0FB
:1017D00088F09F5790F0B92F9927B751A0F0D1F01A
:1017E000660F771F881F991F1AF0BA95C9F712C0A4
:1017F000B13081F09FD0B1E008959CC0672F782F61
:101800008827B85F39F0B93FCCF38695779567950F
:10181000B395D9F73EF490958095709561957F4F7B
:101820008F4F9F4F0895E89409C097FB3EF4909521
:101830008095709561957F4F8F4F9F4F9923A9F0A9
:10184000F92F96E9BB279395F69587957795679538
:10185000B795F111F8CFFAF4BB0F11F460FF1BC07C
:101860006F5F7F4F8F4F9F4F16C0882311F096E90F
:1018700011C0772321F09EE8872F762F05C06623BD
:1018800071F096E8862F70E060E02AF09A95660F76
:10189000771F881FDAF7880F9695879597F908952F
:1018A00097F99F6780E870E060E008959FEF80EC13
:1018B000089500240A9416161706180609060895B6
:1018C00000240A9412161306140605060895092E1C
:1018D0000394000C11F4882352F0BB0F40F4BF2B8B
:1018E00011F460FF04C06F5F7F4F8F4F9F4F0895CB
:1018F00057FD9058440F551F59F05F3F71F04795C1
:10190000880F97FB991F61F09F3F79F087950895A5
:10191000121613061406551FF2CF4695F1DF08C0C4
:10192000161617061806991FF1CF869571056105E1
:1019300008940895E894BB2766277727CB0197F989
:1019400008950BD0C4CFB5DF28F0BADF18F0952387
:1019500009F0A6CFABCF1124EECFCADFA0F3959F3D
:10196000D1F3950F50E0551F629FF001729FBB2786
:10197000F00DB11D639FAA27F00DB11DAA1F649F32
:101980006627B00DA11D661F829F2227B00DA11DE5
:10199000621F739FB00DA11D621F839FA00D611D6B
:1019A000221F749F3327A00D611D231F849F600D8C
:1019B000211D822F762F6A2F11249F5750408AF0C5
:1019C000E1F088234AF0EE0FFF1FBB1F661F771F51
:1019D000881F91505040A9F79E3F510570F060CF8D
:1019E000AACF5F3FECF3983EDCF386957795679539
:1019F000B795F795E7959F5FC1F7FE2B880F911D6F
:101A00009695879597F908958F929F92AF92BF927E
:101A1000CF92DF92EF92FF92CF93DF93EC01688138
:101A200079818A819B81611571058105910521F478
:101A300064E279ED8BE597E02DE133EF41E050E092
:101A40000E948B0D49015A019B01AC01A7EAB1E448
:101A50000E94780D6B017C01ACEEB4EFA5019401FE
:101A60000E94860DC60ED71EE81EF91EF7FE06C0A0
:101A700081E0C81AD108E10880E8F80AC882D98252
:101A8000EA82FB82C6019F77DF91CF91FF90EF90B2
:101A9000DF90CF90BF90AF909F908F9008950E945D
:101AA000040D089587E091E00E94040D0895A0E0E0
:101AB000B0E08093070190930801A0930901B093CF
:101AC0000A010895F999FECF92BD81BDF89A992730
:101AD00080B50895262FF999FECF1FBA92BD81BD1A
:101AE00020BD0FB6F894FA9AF99A0FBE01960895A0
:101AF0000E94D80AA59F900DB49F900DA49F800DC1
:101B0000911D11240895B7FF0C94780D0E94780D53
:101B1000821B930B0895052E97FB1EF400940E94E0
:101B2000A20D57FD07D00E94AA0D07FC03D04EF46A
:101B30000C94A20D50954095309521953F4F4F4FF5
:101B40005F4F089590958095709561957F4F8F4F69
:101B50009F4F0895A1E21A2EAA1BBB1BFD010DC0C9
:101B6000AA1FBB1FEE1FFF1FA217B307E407F5074D
:101B700020F0A21BB30BE40BF50B661F771F881F29
:101B8000991F1A9469F760957095809590959B01BF
:0C1B9000AC01BD01CF010895F894FFCF17
:0C1B9C00AA54015101500101000000009A
:00000001FF
