:100000000C9446000C946C000C946C000C946C00E6
:100010000C946C000C946C000C940F020C946C000B
:100020000C946C000C946C000C946C000C94D50730
:100030000C946C000C946C000C9435070C946C00C0
:100040000C946C000C946C000C946C000C946C0080
:100050000C946C000C946C000C946C000C94F707DE
:100060000C946C000C946C007202EE0246023C028E
:100070004302D002C50253093708370850095C090A
:100080004C0963095F0967092009F20811241FBEA2
:10009000CFEFD8E0DEBFCDBF14BE88E10FB6F89435
:1000A00080936000109260000FBE11E0A0E0B1E00C
:1000B000E6E4FBE102C005900D92AE30B107D9F73E
:1000C00021E0AEE0B1E001C01D92A138B207E1F736
:1000D0000E94960A0C94A10D0C94000021E020933C
:1000E0000E01FC01218130E0322F22278081282B54
:1000F0003093100120930F01089580910001909199
:100100000101019619F087E191E0089580E090E007
:10011000089580917C0190917D01892B99F4109232
:1001200001011092000180E090E09093170180930C
:10013000180187E191E00E94FA09909322018093CF
:10014000210108959091000180910101EECF81E09D
:1001500090E00E947B038091110190911201019621
:1001600090931201809311018838934180F080911F
:100170007C0190917D01892B99F18FEF9FEF9093F6
:1001800001018093000110921201109211018091DF
:100190000E01882321F180910F01909110010196A9
:1001A000E0910001F09101018E179F0720F110925C
:1001B0000E019F01ABEABAEA0E94C70A969587959D
:1001C000AC01440F551F480F591FE41BF50BE130DC
:1001D000F10571F0329749F480E10C94B10708956C
:1001E0001092010110920001CECF81E00C94B10772
:1001F00084E00C94B10790930101809300018093F7
:1002000017019093180187E191E00E94FA099093F9
:100210002201809321011092120110921101E091AC
:100220000001F0910101C3CF909100018091010183
:10023000909317018093180187E191E00E94FA09D9
:1002400090932201809321010895089580E090E029
:1002500008950895DF92EF92FF920F931F93CF932B
:10026000DF93F89414B817B81AB815B818B81BB8B3
:10027000529A5A9A14BC85E085BD8FEF87BD22E063
:1002800020936E0010928000109281008FE89BE016
:10029000909389008093880020936F00539823984F
:1002A00081EA8093B0002093B1001092B4001092C4
:1002B000B3008BE080BF83E080937F0086E0809373
:1002C0007C0083E880937A0080917A008064809338
:1002D0007A0080917A0086FDFCCF10927C0083EA40
:1002E00080937A0081E080937B0081E090E00E941F
:1002F000370D8F3F11F08093660010924A01C1E0E4
:10030000C0932301C09367011092410110927B01B9
:1003100080E990E00E94370D809340018091400178
:10032000887311F0C093400110926B0110926A0122
:100330008FEF90E0909369018093680110924601DD
:1003400010924701109248011092490181E0809378
:10035000160182E49FE090937A018093790180EB0B
:1003600090E00E94370DC82F81EB90E00E94370D7E
:100370002C2F30E0382B30937D0120937C0185E0D9
:1003800090E00E94370D8093800189E090E00E9408
:10039000370D80936C018CE090E00E94370D8093C4
:1003A0007E0184E190E00E94370D80937F015BE441
:1003B000E52E51E0F52E04E211E0C0E2D0E0CE01DE
:1003C0000E94370DD82ECE0101960E94370D2D2D9B
:1003D00030E0322F2227282BF701219331937F0120
:1003E000CE01C0960E94370DD82ECE01C1960E9434
:1003F000370D2D2D30E0322F2227282BF8012193A5
:1004000031938F012296CC33D105C9F67894DF91D0
:10041000CF911F910F91FF90EF90DF9008951F9261
:100420000F920FB60F9211248F9388E10FB6F894B4
:1004300080936000109260000FBE8F910F900FBEEE
:100440000F901F9018957C01EB01D12C88248A9481
:1004500064E0B62E76E0972EE3E8AE2E08E110E0D9
:10046000F9E2CF2EE0911601F0E0E730F105D0F788
:10047000EC5CFF4F0C94C10ADD2009F4FDC0B09282
:100480001601DD24D394FE010995ECCF80914A0139
:100490008111EBC0F89490927C00A0927A00809138
:1004A0007A00806480937A0080917A0086FDFCCF88
:1004B000209178003091790078942B3A92E03907B6
:1004C0000CF0EDC02938E2E03E070CF0EFC0273613
:1004D00032400CF4CAC0559A549A3B9A3A9A3D98C5
:1004E0003C98C0CFF89480B7877F80BF80917A0016
:1004F0008F7780937A0014B817B81AB815B818B85F
:100500001BB80FB6F894A895009360000FBEC09278
:1005100060008091600080648093600083B7817F79
:10052000846083BFF89483B7816083BF7894889593
:1005300083B78E7F83BF789410924A01529A5A9A59
:1005400080917A00806880937A0087E592E0019735
:10055000F1F700C0000080B7886180BF559A549AB7
:100560003B9A3A9A3D9A3C9AEFE1FEE43197F1F7D3
:1005700000C0000080914A01811181C055985498B3
:100580003B983A983D983C986DCF80911401811129
:1005900041C01092B3001092B4001092150162CFC6
:1005A0004899ECCF559A54983B983A983D983C9886
:1005B0008FEC97E00197F1F700C000005598549830
:1005C0003B983A983D983C989FEFE1EEF4E09150CB
:1005D000E040F040E1F700C0000044CF5598549847
:1005E0003B9A3A9A3D983C98EFECF7E03197F1F757
:1005F00000C00000559854983B983A983D983C9814
:10060000FFEF21EE84E0F15020408040E1F700C090
:10061000000028CF9091140180911501981709F4DA
:1006200021CF8091140180931501809114018130B4
:1006300009F450C0809114011092B3008092B4006C
:100640008230D9F18092B3008092B4008FE295E7B6
:100650000197F1F700C0000080917F0190917E0129
:100660009093B3008093B400FDCE559A549A3B9872
:100670003A983D983C98F6CEF701099500CF559AE7
:10068000549A3B983A983D983C98FFEF20E782E0D7
:10069000F15020408040E1F700C000006FCF559836
:1006A00054983B9A3A9A3D983C98DCCE5598549889
:1006B0003B983A983D9A3C9AD5CEEFE2F5E73197D0
:1006C000F1F700C0000080916C011092B30080939C
:1006D000B400C8CE8092B3001092B4008FE295E7C8
:1006E0000197F1F700C00000809180018093B30072
:1006F0001092B400B7CE07C0EFECF7E03197F1F7F6
:1007000000C0000001970097B9F708958093B300E7
:100710006093B40008958FEF8093B3008093B4008A
:100720008FE090E0EFECF7E03197F1F700C00000C8
:1007300001970097B9F7089580914A0181111EC071
:10074000F89487E080937C0083E880937A0080911E
:100750007A00806480937A0080917A0086FDFCCFD5
:10076000809178009091790010927C0023EA209388
:100770007A0021E020937B00789408958FEF9FEF1B
:10078000089580914A0181111EC0F89488EC8093ED
:100790007C0087E880937A0080917A00806480935F
:1007A0007A0080917A0086FDFCCF8091780090914C
:1007B000790010927C0023EA20937A0021E02093B4
:1007C0007B00789408958FEF9FEF08951F93CF9348
:1007D000DF9360E070E080E013EAD1E0C6E0B3E8C8
:1007E000E1E0F0E020E830E0F894C0937C00B093C2
:1007F0007A0090917A00906490937A0090917A00B8
:1008000096FDFCCF4091780050917900A42FA17003
:1008100090917A00906490937A0090917A0096FD7E
:10082000FCCF409178005091790010927C00109399
:100830007A00D0937B0078944170A41305C02150B6
:1008400031092115310581F6AA2339F09F01062EC1
:1008500001C0220F0A94EAF7822B6F5F7F4F683046
:10086000710509F0BFCFDF91CF911F91089580915D
:100870000201982F990F990F990F982780911301D2
:1008800021E0280F2093130186958695892792955C
:1008900096959770892780930201089580930201AD
:1008A000089580914A01811116C0F89486E08093E2
:1008B0007C0083E880937A0080917A008064809342
:1008C0007A0080917A0086FDFCCF8091780090912B
:1008D0007900789408958FEF9FEF08952F923F92BB
:1008E0004F925F926F927F928F929F92AF92BF9240
:1008F000CF92DF92EF92FF920F931F93CF93DF93EC
:1009000000D000D000D0CDB7DEB78C01DC0112964C
:100910000D90BC91A02DBE83AD83A438E3E0BE074B
:100920000CF0CAC080912401909125018A179B0781
:1009300008F4A9C160902601709027016A167B0611
:1009400008F427C260902801709029016A167B067E
:1009500008F428C260902A0170902B016A167B0669
:1009600008F429C260902C0170902D016A167B0654
:1009700008F42AC260902E0170902F016A167B063F
:1009800008F48BC160903001709031016A167B06CB
:1009900008F423C260903201709033016A167B061E
:1009A00008F424C260903401709035016A167B0609
:1009B00008F425C260903601709037016A167B06F4
:1009C00008F426C260903801709039016A167B06DF
:1009D00008F427C260903A0170903B016A167B06CA
:1009E00008F42DC260903C0170903D016A167B06B0
:1009F00008F42EC260903E0170903F016A167B069B
:100A000008F42FC280E090E0A0EDB0E489839A83DF
:100A1000AB83BC838CE0E82EF12CF701EE0FFF1FB7
:100A2000EC5DFE4F80819181B301681B790B80E002
:100A300090E00E94E80B9B01AC010E94EB0A6B0165
:100A40007C01AD81BE81BD01882777FD8095982FFF
:100A50000E94EA0B4B015C01B30180E090E00E9430
:100A6000E80B2B013C0129813A814B815C81C70154
:100A7000B6010E94760C9B01AC01C301B2010E9439
:100A8000EA0A9B01AC01C501B4010E94EA0A20E018
:100A900030E040E251E40E94760C0E94B70B5B010B
:100AA000C701B6010E94B70BAB01BC01C501BA0179
:100AB0000E94AD0A762EE8C077247A94D801AD90D2
:100AC000BC9080914B0190914C018A159B0508F4D4
:100AD0006FC000914D0110914E010A151B0508F4DD
:100AE0005CC100914F01109150010A151B0508F4DB
:100AF0005DC100915101109152010A151B0508F4C6
:100B00005EC100915301109154010A151B0508F4B0
:100B10005FC100915501109156010A151B0508F49B
:100B2000D8C000915701109158010A151B0508F40F
:100B300058C10091590110915A010A151B0508F47A
:100B400059C100915B0110915C010A151B0508F465
:100B50005AC100915D0110915E010A151B0508F450
:100B60005BC100915F01109160010A151B0508F43B
:100B70005CC100916101109162010A151B0508F426
:100B800059C100916301109164010A151B0508F415
:100B90005AC100916501109166010A151B0508F400
:100BA0005BC11AE5BFEF7B1207C081E2810F52C023
:100BB00010E0BFEF7B16C9F3ED81FE81BF018827EE
:100BC00077FD8095982F0E94EA0B6B017C01672DC1
:100BD00070E080E090E00E94E80B4B015C01A7010F
:100BE000960160E070E081E694E40E94EA0A9B01CD
:100BF000AC01C501B4010E94760C4B015C01612F70
:100C000070E080E090E00E94E80B2B013C0120E0C6
:100C100030E04FE254E4C701B6010E94EA0A9B01AA
:100C2000AC01C301B2010E94760C9B01AC01C5016D
:100C3000B4010E94EB0A20E030E048E453E40E9453
:100C40004F0B20E030E044E052E40E94EB0A0E94A7
:100C5000BC0B862F26960FB6F894DEBF0FBECDBF15
:100C6000DF91CF911F910F91FF90EF90DF90CF9088
:100C7000BF90AF909F908F907F906F905F904F90BC
:100C80003F902F900895712CED81FE81ED3BF24055
:100C90000CF014CF81E2870DDDCF65E085E090E0B8
:100CA0007C01F1E0EF1AF10870E080E090E00E9432
:100CB000E80B20E030E040E05FE30E94760C20E0AB
:100CC00030E0A9010E94EB0A69837A838B839C83BD
:100CD000A4CE75E0672EE5E0F0E0EE0FFF1FE75BC6
:100CE000FE4F80819181B801681B790B80E090E014
:100CF0000E94E80B9B01AC010E94EB0A6B017C0196
:100D0000B501882777FD8095982F0E94EA0B4B014B
:100D10005C01B80180E090E00E94E80B1B012C010F
:100D2000662D70E080E090E00E94E80B20E030E06B
:100D300040E05FE30E94760C20E030E0A9010E94D1
:100D4000EB0AA70196010E94760C9B01AC01C2013F
:100D5000B1010E94EA0A9B01AC01C501B4010E94E5
:100D6000EA0A20E030E040E251E40E94760C0E9462
:100D7000B70B8B01C701B6010E94B70BAB01BC01D9
:100D8000C801BA010E94AD0A162F6F3F09F011CFBA
:100D900081CF61E081E090E083CF66246394E1E05D
:100DA000F0E09BCF62E082E090E07ACFA2E06A2E92
:100DB000E2E0F0E092CF63E083E090E071CFF3E017
:100DC0006F2EE3E0F0E089CF64E084E090E068CF4C
:100DD000E4E06E2EE4E0F0E080CF66E086E090E0B4
:100DE0005FCF66E0662EE6E0F0E077CF67E087E071
:100DF00090E056CF57E0652EE7E0F0E06ECF68E078
:100E000088E090E04DCF48E0642EE8E0F0E065CF68
:100E100069E089E090E044CF39E0632EE9E0F0E05A
:100E20005CCF6AE08AE090E03BCF2AE0622EEAE005
:100E3000F0E053CF9BE0692EEBE0F0E04ECF6BE0AB
:100E40008BE090E02DCF8CE0682EECE0F0E045CF19
:100E50006CE08CE090E024CFBDE06B2EEDE0F0E0A4
:100E60003CCF6DE08DE090E01BCF1F920F920FB64C
:100E70000F9211242F933F934F935F936F937F9320
:100E80008F939F93AF93BF93EF93FF9380916A01EA
:100E900090916B012091680130916901820F931F3D
:100EA00090936B0180936A018FEF90E090936901BA
:100EB000809368018FEF87BD809146019091470133
:100EC000A0914801B09149010196A11DB11D8093E7
:100ED000460190934701A0934801B0934901809146
:100EE0004A0181110FC08091790190917A0120917E
:100EF0006A0130916B018217930720F480911601EB
:100F0000843089F0FF91EF91BF91AF919F918F91C4
:100F10007F916F915F914F913F912F910F900FBEF5
:100F20000F901F901895E0910501F0910601099529
:100F3000009741F30E94130A811109C00E94270DF6
:100F40009927909369018093680187BDDBCFE09179
:100F50000301F0910401099510926B0110926A014E
:100F6000D1CF80FF11C0559A81FF11C0549A82FFE2
:100F700011C03B9A83FF11C03A9A84FF11C03D9A79
:100F800085FD11C03C980895559881FDEFCF549888
:100F900082FDEFCF3B9883FDEFCF3A9884FDEFCFF2
:100FA0003D9885FFEFCF3C9A08951F920F920FB6A0
:100FB0000F9211248F939F931092810010928500BD
:100FC0001092840081E08093230180936701109246
:100FD0004A0110927C0093EA90937A0080937B0000
:100FE0009F918F910F900FBE0F901F9018951F9299
:100FF0000F920FB60F9211242F933F934F935F934D
:101000006F937F938F939F93AF93BF93CF93DF9310
:10101000EF93FF93209184003091850041E040934D
:101020004A01809123018823A9F110928500109232
:1010300084004093810010927B01109223018091E3
:1010400067018823A1F080917A0086FDFCCF809112
:10105000780090917900909345018093440181E05C
:1010600080937C0093EA90937A0080937B00FF91B9
:10107000EF91DF91CF91BF91AF919F918F917F9130
:101080006F915F914F913F912F910F900FBE0F90F5
:101090001F901895C901875891098437994008F025
:1010A0004FC026583109A4EFB0E00E94C70AAA2712
:1010B000BB27883008F47BC04093230180916701EF
:1010C000811152C080914101E82FF0E0E359FE4FB9
:1010D00090917B0190838F5F809341018C3039F632
:1010E0001092810010928500109284004093670155
:1010F00010924A01C0917701D09178018DE691E07C
:101100000E94FA09C817D90709F0B1CF809176017A
:1011100087FF5EC098E7980F933030F0539823987C
:101120001092B4001092B30090E0FC01E058F10975
:10113000EB30F10508F09BCFE55CFF4F0C94C10A42
:101140001092810010928500109284004093230138
:101150004093670110924A0110927C0083EA8093C9
:101160007A0040937B0083CF80917A0086FDFCCF8C
:10117000809178009091790090934301809342018F
:1011800010927C0083EA80937A0081E080937B0058
:1011900090917B019923B9F0109281001092850003
:1011A000109284008093670110924A0160CF21E081
:1011B00030E001C0220F8A95EAF780917B01822BF3
:1011C00080937B0154CF10926701109241014FCF61
:1011D000E0910701F091080162E471E08DE691E091
:1011E000099545CF80916D01823009F4DCC008F487
:1011F000B9C0833009F4C5C0843009F0B0C0809113
:10120000140190917301833009F4E2C0809172015E
:101210001092150123E02093140180937E01909396
:101220007F0180911601863009F421CF539A239AC9
:101230001092B4001092B30086E08093160117CF8D
:1012400080911601863099F0539A239A1092B40037
:101250001092B300559854983B983A983D983C9812
:10126000109214011092150186E08093160181E01E
:1012700090E000906D0102C0880F991F0A94E2F778
:1012800020917C0130917D0182239323892B09F0E9
:1012900086C010921401EBCE81E080931601E7CE58
:1012A000E0E0F0E0099580916E008D7F80936E0004
:1012B00016BCE0E0F0E7099510921601D8CE82E066
:1012C00080931601D4CE85E080931601D0CE809114
:1012D0001601833009F4CBCE80911601843009F4D5
:1012E000C6CE539A239A1092B4001092B30083E0B2
:1012F00080931601BCCE80911601863009F0B7CEDE
:1013000060917C0180EB90E00E943F0D60917D0137
:1013100081EB90E00E943F0D6091800185E090E0BC
:101320000E943F0D60916C0189E090E00E943F0DAA
:1013300060917E018CE090E00E943F0D60917F0102
:1013400084E190E00E943F0D539823981092B400DE
:101350001092B30081E08093160180916D0181119C
:1013600060CF85CE882339F28130C9F780916E0134
:1013700090916F0190937D0180937C0110921401F4
:1013800050CF80911401823071F1809171011092DF
:10139000150192E09093140180936C0142CF81E09B
:1013A0008093140164CE80911401813051F08091BA
:1013B00070011092150191E09093140180938001C7
:1013C00030CF80917001909180018913F2CF29CFA5
:1013D00080917F0198131ACF8091720120917E0134
:1013E000821316CF1ECF8091710190916C018913E9
:1013F000CECF17CFFC012AE08FEF9FEF31918327EB
:10140000082E8295807F8025092E982F82958F70D7
:101410000826869598278927880F880F880F8025AA
:10142000215061F708950FB6F894A4B120914001BE
:101430002A2B24B921E030914001203029F000000E
:1014400025B1232B25B904C000000000000000C016
:10145000000000000000309525B1232325B92EEAB5
:101460002A95F1F72BEE30B735FF0AC0A4B93091B9
:101470004001309525B1232325B90FBE80E00895A2
:1014800000002A9581F721E030914001203029F0B9
:10149000000025B1232B25B904C000000000000086
:1014A00000C0000000000000309525B1232325B9BD
:1014B000000024E52A95F1F7FC018CE0619170E0D1
:1014C000660F771F616072609AE041E050E09A0118
:1014D00026233723232B30914001203029F00000B0
:1014E00025B1232B25B904C000000000000000C076
:1014F000000000000000309525B1232325B900002D
:1015000021E52A95F1F7440F551F9A9501F78A9521
:10151000A9F620B7206120BFA4B9309140013095D1
:1015200025B1232325B90FBE81E008950E942A0129
:101530008EE690E090930801809307018DE790E09C
:10154000909306018093050167EA70E089E890E0D6
:101550000E94230280E090E0089597FB072E16F486
:10156000009407D077FD09D00E94D60A07FC05D069
:101570003EF4909581959F4F0895709561957F4FAA
:101580000895EE0FFF1F0590F491E02D0994A29F9E
:10159000B001B39FC001A39F700D811D1124911D47
:1015A000B29F700D811D1124911D0895AA1BBB1BB4
:1015B00051E107C0AA1FBB1FA617B70710F0A61B53
:1015C000B70B881F991F5A95A9F780959095BC0174
:1015D000CD0108955058BB27AA270ED04DC13ED14A
:1015E00030F043D120F031F49F3F11F41EF433C1A9
:1015F0000EF4E095E7FB29C1E92F4FD180F3BA172C
:10160000620773078407950718F071F49EF567C1A8
:101610000EF4E0950B2EBA2FA02D0B01B90190010D
:101620000C01CA01A0011124FF27591B99F0593F51
:1016300050F4503E68F11A16F040A22F232F342F99
:101640004427585FF3CF469537952795A795F040E7
:101650005395C9F77EF41F16BA0B620B730B840BFC
:10166000BAF09150A1F0FF0FBB1F661F771F881FB4
:10167000C2F70EC0BA0F621F731F841F48F487950C
:1016800077956795B795F7959E3F08F0B3CF9395FB
:10169000880F08F09927EE0F9795879508950CD03D
:1016A000EBC0E3D040F0DAD030F021F45F3F19F026
:1016B000CCC0511115C1CFC0F0D098F39923C9F314
:1016C0005523B1F3951B550BBB27AA276217730748
:1016D000840738F09F5F5F4F220F331F441FAA1FFC
:1016E000A9F333D00E2E3AF0E0E830D091505040BC
:1016F000E695001CCAF729D0FE2F27D0660F771F6A
:10170000881FBB1F261737074807AB07B0E809F04B
:10171000BB0B802DBF01FF2793585F4F2AF09E3FE0
:10172000510568F092C0DCC05F3FECF3983EDCF3FB
:10173000869577956795B795F7959F5FC9F7880F59
:10174000911D9695879597F90895E1E0660F771FAB
:10175000881FBB1F621773078407BA0720F0621B3C
:10176000730B840BBA0BEE1F88F7E095089504D035
:101770006894B111B5C0089598D088F09F5790F043
:10178000B92F9927B751A0F0D1F0660F771F881FA6
:10179000991F1AF0BA95C9F712C0B13081F09FD0E5
:1017A000B1E008959CC0672F782F8827B85F39F083
:1017B000B93FCCF3869577956795B395D9F73EF405
:1017C00090958095709561957F4F8F4F9F4F0895AD
:1017D000E89409C097FB3EF49095809570956195CB
:1017E0007F4F8F4F9F4F9923A9F0F92F96E9BB2781
:1017F0009395F695879577956795B795F111F8CFFD
:10180000FAF4BB0F11F460FF1BC06F5F7F4F8F4F67
:101810009F4F16C0882311F096E911C0772321F05D
:101820009EE8872F762F05C0662371F096E8862FF5
:1018300070E060E02AF09A95660F771F881FDAF74C
:10184000880F9695879597F9089597F99F6780E88F
:1018500070E060E008959FEF80EC089500240A9402
:101860001616170618060906089500240A9412167B
:101870001306140605060895092E0394000C11F4AE
:10188000882352F0BB0F40F4BF2B11F460FF04C05B
:101890006F5F7F4F8F4F9F4F089557FD9058440FB4
:1018A000551F59F05F3F71F04795880F97FB991FBF
:1018B00061F09F3F79F0879508951216130614067C
:1018C000551FF2CF4695F1DF08C016161706180609
:1018D000991FF1CF86957105610508940895E894E4
:1018E000BB2766277727CB0197F908950BD0C4CF84
:1018F000B5DF28F0BADF18F0952309F0A6CFABCFFB
:101900001124EECFCADFA0F3959FD1F3950F50E0DD
:10191000551F629FF001729FBB27F00DB11D639FA1
:10192000AA27F00DB11DAA1F649F6627B00DA11D47
:10193000661F829F2227B00DA11D621F739FB00DED
:10194000A11D621F839FA00D611D221F749F33275D
:10195000A00D611D231F849F600D211D822F762FF6
:101960006A2F11249F5750408AF0E1F088234AF0F3
:10197000EE0FFF1FBB1F661F771F881F915050403F
:10198000A9F79E3F510570F060CFAACF5F3FECF3FF
:10199000983EDCF3869577956795B795F795E7952B
:1019A0009F5FC1F7FE2B880F911D9695879597F93C
:1019B00008958F929F92AF92BF92CF92DF92EF9253
:1019C000FF92CF93DF93EC01688179818A819B81BB
:1019D000611571058105910521F464E279ED8BE5CE
:1019E00097E02DE133EF41E050E00E944D0D4901B9
:1019F0005A019B01AC01A7EAB1E40E946C0D6B0196
:101A00007C01ACEEB4EFA50194010E947A0DC60EE4
:101A1000D71EE81EF91EF7FE06C081E0C81AD108DD
:101A2000E10880E8F80AC882D982EA82FB82C6010E
:101A30009F77DF91CF91FF90EF90DF90CF90BF9095
:101A4000AF909F908F9008950E94D90C089589E0DF
:101A500091E00E94D90C0895A0E0B0E080930901C4
:101A600090930A01A0930B01B0930C010895F9998A
:101A7000FECF92BD81BDF89A992780B50895262F93
:101A8000F999FECF1FBA92BD81BD20BD0FB6F89463
:101A9000FA9AF99A0FBE01960895052E97FB1EF447
:101AA00000940E94640D57FD07D00E947F0D07FC33
:101AB00003D04EF40C94640D5095409530952195CB
:101AC0003F4F4F4F5F4F089590958095709561956A
:101AD0007F4F8F4F9F4F08950E94C70AA59F900D7B
:101AE000B49F900DA49F800D911D11240895B7FF00
:101AF0000C946C0D0E946C0D821B930B0895A1E257
:101B00001A2EAA1BBB1BFD010DC0AA1FBB1FEE1F77
:101B1000FF1FA217B307E407F50720F0A21BB30BC2
:101B2000E40BF50B661F771F881F991F1A9469F73E
:101B300060957095809590959B01AC01BD01CF019A
:061B40000895F894FFCFA8
:0E1B4600FFFFAA290126012501010000000071
:00000001FF
