:100000000C9446000C946C000C946C000C946C00E6
:100010000C946C000C946C000C947B010C946C00A0
:100020000C946C000C946C000C946C000C944107C4
:100030000C946C000C946C000C94A1060C946C0055
:100040000C946C000C946C000C946C000C946C0080
:100050000C946C000C946C000C946C000C94630772
:100060000C946C000C946C00DE015A02B201A801E1
:10007000AF013C023102BF08A307A307BC08C808B0
:10008000B808CF08CB08D3088C085E0811241FBE1F
:10009000CFEFD8E0DEBFCDBF14BE88E10FB6F89435
:1000A00080936000109260000FBE11E0A0E0B1E00C
:1000B000EEE1FAE102C005900D92AC30B107D9F73C
:1000C00011E0ACE0B1E001C01D92AB37B107E1F740
:1000D0000E94020A0C940D0D0C94000081E191E045
:1000E000089581E080930C01089510921A0181E136
:1000F00091E00E94660990931C0180931B01089572
:1001000080910C01811101C0089510920C0180E1D1
:100110000E941D0784E190E00E94E70280E00C94B9
:100120001D07089580E090E008950895DF92EF9212
:10013000FF920F931F93CF93DF93F89414B817B8DF
:100140001AB815B818B81BB8529A5A9A14BC85E058
:1001500085BD8FEF87BD22E020936E001092800056
:10016000109281008FE89BE0909389008093880033
:1001700020936F005398239881EA8093B0002093D6
:10018000B1001092B4001092B3008BE080BF83E006
:1001900080937F0086E080937C0083E880937A00E0
:1001A00080917A00806480937A0080917A0086FD45
:1001B000FCCF10927C0083EA80937A0081E08093E8
:1001C0007B0081E090E00E94A30C8F3F11F08093B0
:1001D000660010924401C1E0C0931D01C09361010B
:1001E00010923B011092750180E990E00E94A30CEF
:1001F00080933A0180913A01887311F0C0933A01DB
:1002000010926501109264018FEF90E0909363016A
:1002100080936201109240011092410110924201BC
:100220001092430181E08093100182E49FE090935B
:1002300074018093730180EB90E00E94A30CC82F9F
:1002400081EB90E00E94A30C2C2F30E0382B3093F0
:1002500077012093760185E090E00E94A30C8093C3
:100260007A0189E090E00E94A30C809366018CE003
:1002700090E00E94A30C8093780184E190E00E94BA
:10028000A30C8093790155E4E52E51E0F52E0EE1A3
:1002900011E0C0E2D0E0CE010E94A30CD82ECE0126
:1002A00001960E94A30C2D2D30E0322F2227282BFF
:1002B000F701219331937F01CE01C0960E94A30CD8
:1002C000D82ECE01C1960E94A30C2D2D30E0322FE6
:1002D0002227282BF801219331938F012296CC33CA
:1002E000D105C9F67894DF91CF911F910F91FF90BE
:1002F000EF90DF9008951F920F920FB60F92112486
:100300008F9388E10FB6F89480936000109260009C
:100310000FBE8F910F900FBE0F901F9018957C010C
:10032000EB01D12C88248A9464E0B62E76E0972ED7
:10033000E3E8AE2E08E110E0F9E2CF2EE0911001E3
:10034000F0E0E730F105D0F7EC5CFF4F0C943C0A8D
:10035000DD2009F4FDC0B0921001DD24D394FE012C
:100360000995ECCF809144018111EBC0F8949092F3
:100370007C00A0927A0080917A00806480937A0059
:1003800080917A0086FDFCCF209178003091790031
:1003900078942B3A92E039070CF0EDC02938E2E06E
:1003A0003E070CF0EFC0273632400CF4CAC0559A15
:1003B000549A3B9A3A9A3D983C98C0CFF89480B7AB
:1003C000877F80BF80917A008F7780937A0014B8FE
:1003D00017B81AB815B818B81BB80FB6F894A8957E
:1003E000009360000FBEC092600080916000806446
:1003F0008093600083B7817F846083BFF89483B764
:10040000816083BF7894889583B78E7F83BF78940B
:1004100010924401529A5A9A80917A00806880938F
:100420007A0087E592E00197F1F700C0000080B7FD
:10043000886180BF559A549A3B9A3A9A3D9A3C9A61
:10044000EFE1FEE43197F1F700C000008091440134
:10045000811181C0559854983B983A983D983C98A2
:100460006DCF80910E01811141C01092B3001092A6
:10047000B40010920F0162CF4899ECCF559A54986E
:100480003B983A983D983C988FEC97E00197F1F7AC
:1004900000C00000559854983B983A983D983C9875
:1004A0009FEFE1EEF4E09150E040F040E1F700C052
:1004B000000044CF559854983B9A3A9A3D983C98FE
:1004C000EFECF7E03197F1F700C000005598549831
:1004D0003B983A983D983C98FFEF21EE84E0F1502C
:1004E00020408040E1F700C0000028CF90910E012D
:1004F00080910F01981709F421CF80910E0180930C
:100500000F0180910E01813009F450C080910E01DD
:100510001092B3008092B4008230D9F18092B3007F
:100520008092B4008FE295E70197F1F700C00000D8
:1005300080917901909178019093B3008093B400F9
:10054000FDCE559A549A3B983A983D983C98F6CEF1
:10055000F701099500CF559A549A3B983A983D98DF
:100560003C98FFEF20E782E0F15020408040E1F727
:1005700000C000006FCF559854983B9A3A9A3D9826
:100580003C98DCCE559854983B983A983D9A3C9AC2
:10059000D5CEEFE2F5E73197F1F700C0000080918A
:1005A00066011092B3008093B400C8CE8092B3006D
:1005B0001092B4008FE295E70197F1F700C00000B8
:1005C00080917A018093B3001092B400B7CE07C037
:1005D000EFECF7E03197F1F700C0000001970097CA
:1005E000B9F708958093B3006093B40008958FEF36
:1005F0008093B3008093B4008FE090E0EFECF7E0DD
:100600003197F1F700C0000001970097B9F70895FE
:100610008091440181111EC0F89487E080937C0092
:1006200083E880937A0080917A00806480937A00D6
:1006300080917A0086FDFCCF8091780090917900BE
:1006400010927C0023EA20937A0021E020937B0023
:10065000789408958FEF9FEF089580914401811160
:100660001EC0F89488EC80937C0087E880937A0021
:1006700080917A00806480937A0080917A0086FD70
:10068000FCCF809178009091790010927C0023EA51
:1006900020937A0021E020937B00789408958FEFD7
:1006A0009FEF08951F93CF93DF9360E070E080E0A9
:1006B00013EAD1E0C6E0B3E8E1E0F0E020E830E0A2
:1006C000F894C0937C00B0937A0090917A00906483
:1006D00090937A0090917A0096FDFCCF409178003B
:1006E00050917900A42FA17090917A00906490931A
:1006F0007A0090917A0096FDFCCF4091780050915D
:10070000790010927C0010937A00D0937B0078944B
:100710004170A41305C0215031092115310581F61E
:10072000AA2339F09F01062E01C0220F0A94EAF78E
:10073000822B6F5F7F4F6830710509F0BFCFDF916B
:10074000CF911F91089580910001982F990F990FD3
:10075000990F982780910D0121E0280F20930D011A
:100760008695869589279295969597708927809387
:100770000001089580930001089580914401811142
:1007800016C0F89486E080937C0083E880937A001A
:1007900080917A00806480937A0080917A0086FD4F
:1007A000FCCF8091780090917900789408958FEF34
:1007B0009FEF08952F923F924F925F926F927F9298
:1007C0008F929F92AF92BF92CF92DF92EF92FF9261
:1007D0000F931F93CF93DF9300D000D000D0CDB7FD
:1007E000DEB78C01DC0112960D90BC91A02DBE836A
:1007F000AD83A438E3E0BE070CF0CAC080911E01AF
:1008000090911F018A179B0708F4A9C160902001ED
:10081000709021016A167B0608F427C260902201BD
:10082000709023016A167B0608F428C260902401A8
:10083000709025016A167B0608F429C26090260193
:10084000709027016A167B0608F42AC2609028017E
:10085000709029016A167B0608F48BC160902A010A
:1008600070902B016A167B0608F423C260902C015D
:1008700070902D016A167B0608F424C260902E0148
:1008800070902F016A167B0608F425C26090300133
:10089000709031016A167B0608F426C2609032011E
:1008A000709033016A167B0608F427C26090340109
:1008B000709035016A167B0608F42DC260903601EF
:1008C000709037016A167B0608F42EC260903801DA
:1008D000709039016A167B0608F42FC280E090E020
:1008E000A0EDB0E489839A83AB83BC838CE0E82ECF
:1008F000F12CF701EE0FFF1FE25EFE4F8081918128
:10090000B301681B790B80E090E00E94540B9B01BF
:10091000AC010E94570A6B017C01AD81BE81BD0113
:10092000882777FD8095982F0E94560B4B015C011C
:10093000B30180E090E00E94540B2B013C0129811F
:100940003A814B815C81C701B6010E94E20B9B0199
:10095000AC01C301B2010E94560A9B01AC01C50162
:10096000B4010E94560A20E030E040E251E40E94C7
:10097000E20B0E94230B5B01C701B6010E94230B0F
:10098000AB01BC01C501BA010E94280A762EE8C05D
:1009900077247A94D801AD90BC90809145019091D4
:1009A00046018A159B0508F46FC00091470110911C
:1009B00048010A151B0508F45CC10091490110911A
:1009C0004A010A151B0508F45DC100914B01109105
:1009D0004C010A151B0508F45EC100914D011091F0
:1009E0004E010A151B0508F45FC100914F011091DB
:1009F00050010A151B0508F4D8C00091510110914F
:100A000052010A151B0508F458C1009153011091B9
:100A100054010A151B0508F459C1009155011091A4
:100A200056010A151B0508F45AC10091570110918F
:100A300058010A151B0508F45BC10091590110917A
:100A40005A010A151B0508F45CC100915B01109165
:100A50005C010A151B0508F459C100915D01109154
:100A60005E010A151B0508F45AC100915F0110913F
:100A700060010A151B0508F45BC11AE5BFEF7B1284
:100A800007C081E2810F52C010E0BFEF7B16C9F3AF
:100A9000ED81FE81BF01882777FD8095982F0E9408
:100AA000560B6B017C01672D70E080E090E00E94A6
:100AB000540B4B015C01A701960160E070E081E6F8
:100AC00094E40E94560A9B01AC01C501B4010E9446
:100AD000E20B4B015C01612F70E080E090E00E942E
:100AE000540B2B013C0120E030E04FE254E4C701FD
:100AF000B6010E94560A9B01AC01C301B2010E94DB
:100B0000E20B9B01AC01C501B4010E94570A20E031
:100B100030E048E453E40E94BB0A20E030E044E0C7
:100B200052E40E94570A0E94280B862F26960FB681
:100B3000F894DEBF0FBECDBFDF91CF911F910F9113
:100B4000FF90EF90DF90CF90BF90AF909F908F90ED
:100B50007F906F905F904F903F902F900895712CF1
:100B6000ED81FE81ED3BF2400CF014CF81E2870D68
:100B7000DDCF65E085E090E07C01F1E0EF1AF1085F
:100B800070E080E090E00E94540B20E030E040E014
:100B90005FE30E94E20B20E030E0A9010E94570AC7
:100BA00069837A838B839C83A4CE75E0672EE5E00E
:100BB000F0E0EE0FFF1FED5BFE4F80819181B801E9
:100BC000681B790B80E090E00E94540B9B01AC0104
:100BD0000E94570A6B017C01B501882777FD80953B
:100BE000982F0E94560B4B015C01B80180E090E009
:100BF0000E94540B1B012C01662D70E080E090E0F8
:100C00000E94540B20E030E040E05FE30E94E20BE2
:100C100020E030E0A9010E94570AA70196010E9436
:100C2000E20B9B01AC01C201B1010E94560A9B017B
:100C3000AC01C501B4010E94560A20E030E040E258
:100C400051E40E94E20B0E94230B8B01C701B60105
:100C50000E94230BAB01BC01C801BA010E94280A03
:100C6000162F6F3F09F011CF81CF61E081E090E056
:100C700083CF66246394E1E0F0E09BCF62E082E002
:100C800090E07ACFA2E06A2EE2E0F0E092CF63E05B
:100C900083E090E071CFF3E06F2EE3E0F0E089CFE6
:100CA00064E084E090E068CFE4E06E2EE4E0F0E001
:100CB00080CF66E086E090E05FCF66E0662EE6E0FB
:100CC000F0E077CF67E087E090E056CF57E0652E01
:100CD000E7E0F0E06ECF68E088E090E04DCF48E0DC
:100CE000642EE8E0F0E065CF69E089E090E044CF71
:100CF00039E0632EE9E0F0E05CCF6AE08AE090E062
:100D00003BCF2AE0622EEAE0F0E053CF9BE0692E71
:100D1000EBE0F0E04ECF6BE08BE090E02DCF8CE08D
:100D2000682EECE0F0E045CF6CE08CE090E024CF62
:100D3000BDE06B2EEDE0F0E03CCF6DE08DE090E0AB
:100D40001BCF1F920F920FB60F9211242F933F9338
:100D50004F935F936F937F938F939F93AF93BF93C3
:100D6000EF93FF938091640190916501209162015E
:100D700030916301820F931F90936501809364010A
:100D80008FEF90E090936301809362018FEF87BDB6
:100D90008091400190914101A0914201B0914301A5
:100DA0000196A11DB11D8093400190934101A09334
:100DB0004201B09343018091440181110FC08091A1
:100DC0007301909174012091640130916501821743
:100DD000930720F480911001843089F0FF91EF9106
:100DE000BF91AF919F918F917F916F915F914F9143
:100DF0003F912F910F900FBE0F901F901895E0918B
:100E00000301F09104010995009741F30E947F09C5
:100E1000811109C00E94930C9927909363018093DC
:100E2000620187BDDBCFE0910101F09102010995DC
:100E30001092650110926401D1CF80FF11C0559AC4
:100E400081FF11C0549A82FF11C03B9A83FF11C0E9
:100E50003A9A84FF11C03D9A85FD11C03C980895CF
:100E6000559881FDEFCF549882FDEFCF3B9883FDDD
:100E7000EFCF3A9884FDEFCF3D9885FFEFCF3C9AB6
:100E800008951F920F920FB60F9211248F939F9384
:100E900010928100109285001092840081E080936E
:100EA0001D01809361011092440110927C0093EA2D
:100EB00090937A0080937B009F918F910F900FBE4B
:100EC0000F901F9018951F920F920FB60F9211243A
:100ED0002F933F934F935F936F937F938F939F9342
:100EE000AF93BF93CF93DF93EF93FF932091840051
:100EF0003091850041E04093440180911D01882399
:100F0000A9F1109285001092840040938100109204
:100F1000750110921D01809161018823A1F08091DB
:100F20007A0086FDFCCF80917800909179009093B3
:100F30003F0180933E0181E080937C0093EA90938F
:100F40007A0080937B00FF91EF91DF91CF91BF9169
:100F5000AF919F918F917F916F915F914F913F9151
:100F60002F910F900FBE0F901F901895C9018758B1
:100F700091098437994008F04FC026583109A4EFF1
:100F8000B0E00E94190AAA27BB27883008F47BC06A
:100F900040931D0180916101811152C080913B01FC
:100FA000E82FF0E0E959FE4F9091750190838F5F33
:100FB00080933B018C3039F61092810010928500AD
:100FC000109284004093610110924401C09171011C
:100FD000D091720187E691E00E946609C817D9078F
:100FE00009F0B1CF8091700187FF5EC098E7980F3C
:100FF000933030F0539823981092B4001092B300BD
:1010000090E0FC01E058F109EB30F10508F09BCFCE
:10101000E55CFF4F0C943C0A109281001092850011
:101020001092840040931D0140936101109244018D
:1010300010927C0083EA80937A0040937B0083CFF8
:1010400080917A0086FDFCCF8091780090917900A4
:1010500090933D0180933C0110927C0083EA809341
:101060007A0081E080937B00909175019923B9F01B
:10107000109281001092850010928400809361018B
:101080001092440160CF21E030E001C0220F8A9528
:10109000EAF780917501822B8093750154CF1092ED
:1010A000610110923B014FCFE0910501F0910601E3
:1010B0006CE371E087E691E0099545CF8091670187
:1010C000823009F4DCC008F4B9C0833009F4C5C02B
:1010D000843009F0B0C080910E0190916D01833091
:1010E00009F4E2C080916C0110920F0123E020937B
:1010F0000E018093780190937901809110018630E0
:1011000009F421CF539A239A1092B4001092B3009D
:1011100086E08093100117CF80911001863099F0FE
:10112000539A239A1092B4001092B3005598549891
:101130003B983A983D983C9810920E0110920F01FE
:1011400086E08093100181E090E00090670102C08A
:10115000880F991F0A94E2F7209176013091770168
:1011600082239323892B09F086C010920E01EBCEC7
:1011700081E080931001E7CEE0E0F0E009958091F6
:101180006E008D7F80936E0016BCE0E0F0E709955D
:1011900010921001D8CE82E080931001D4CE85E069
:1011A00080931001D0CE80911001833009F4CBCE12
:1011B00080911001843009F4C6CE539A239A10927C
:1011C000B4001092B30083E080931001BCCE8091F4
:1011D0001001863009F0B7CE6091760180EB90E087
:1011E0000E94AB0C6091770181EB90E00E94AB0C08
:1011F00060917A0185E090E00E94AB0C60916601FD
:1012000089E090E00E94AB0C609178018CE090E066
:101210000E94AB0C6091790184E190E00E94AB0CDC
:10122000539823981092B4001092B30081E08093F9
:10123000100180916701811160CF85CE882339F23A
:101240008130C9F78091680190916901909377018D
:101250008093760110920E0150CF80910E01823062
:1012600071F180916B0110920F0192E090930E0149
:101270008093660142CF81E080930E0164CE80911D
:101280000E01813051F080916A0110920F0191E0BE
:1012900090930E0180937A0130CF80916A019091F2
:1012A0007A018913F2CF29CF8091790198131ACF4F
:1012B00080916C0120917801821316CF1ECF80910E
:1012C0006B01909166018913CECF17CFFC012AE004
:1012D0008FEF9FEF31918327082E8295807F8025A5
:1012E000092E982F82958F70082686959827892732
:1012F000880F880F880F8025215061F708950FB659
:10130000F894A4B120913A012A2B24B921E030911C
:101310003A01203029F0000025B1232B25B904C063
:1013200000000000000000C0000000000000309538
:1013300025B1232325B92EEA2A95F1F72BEE30B7F4
:1013400035FF0AC0A4B930913A01309525B1232365
:1013500025B90FBE80E0089500002A9581F721E0AD
:1013600030913A01203029F0000025B1232B25B916
:1013700004C000000000000000C0000000000000E9
:10138000309525B1232325B9000024E52A95F1F7EE
:10139000FC018CE0619170E0660F771F6160726004
:1013A0009AE041E050E09A0126233723232B309125
:1013B0003A01203029F0000025B1232B25B904C0C3
:1013C00000000000000000C0000000000000309598
:1013D00025B1232325B9000021E52A95F1F7440F13
:1013E000551F9A9501F78A95A9F620B7206120BF6D
:1013F000A4B930913A01309525B1232325B90FBE08
:1014000081E008950E9496008EE690E0909304019A
:101410008093030181E790E09093020180930101A2
:1014200060E870E085E790E00E948F0180E090E046
:101430000895A29FB001B39FC001A39F700D811DAD
:101440001124911DB29F700D811D1124911D0895CD
:1014500097FB072E16F4009407D077FD09D00E9461
:10146000420A07FC05D03EF4909581959F4F089560
:10147000709561957F4F0895EE0FFF1F0590F491D1
:10148000E02D0994AA1BBB1B51E107C0AA1FBB1F7B
:10149000A617B70710F0A61BB70B881F991F5A9500
:1014A000A9F780959095BC01CD0108955058BB27B0
:1014B000AA270ED04DC13ED130F043D120F031F4F7
:1014C0009F3F11F41EF433C10EF4E095E7FB29C1F0
:1014D000E92F4FD180F3BA17620773078407950786
:1014E00018F071F49EF567C10EF4E0950B2EBA2F3B
:1014F000A02D0B01B90190010C01CA01A00111241A
:10150000FF27591B99F0593F50F4503E68F11A16C5
:10151000F040A22F232F342F4427585FF3CF469556
:1015200037952795A795F0405395C9F77EF41F1678
:10153000BA0B620B730B840BBAF09150A1F0FF0F42
:10154000BB1F661F771F881FC2F70EC0BA0F621F2E
:10155000731F841F48F4879577956795B795F7951E
:101560009E3F08F0B3CF9395880F08F09927EE0FB0
:101570009795879508950CD0EBC0E3D040F0DAD072
:1015800030F021F45F3F19F0CCC0511115C1CFC02C
:10159000F0D098F39923C9F35523B1F3951B550B5C
:1015A000BB27AA2762177307840738F09F5F5F4F36
:1015B000220F331F441FAA1FA9F333D00E2E3AF077
:1015C000E0E830D091505040E695001CCAF729D091
:1015D000FE2F27D0660F771F881FBB1F26173707E0
:1015E0004807AB07B0E809F0BB0B802DBF01FF2710
:1015F00093585F4F2AF09E3F510568F092C0DCC0BF
:101600005F3FECF3983EDCF3869577956795B79549
:10161000F7959F5FC9F7880F911D9695879597F964
:101620000895E1E0660F771F881FBB1F62177307DD
:101630008407BA0720F0621B730B840BBA0BEE1FF2
:1016400088F7E095089504D06894B111B5C0089565
:1016500098D088F09F5790F0B92F9927B751A0F0F4
:10166000D1F0660F771F881F991F1AF0BA95C9F736
:1016700012C0B13081F09FD0B1E008959CC0672FB7
:10168000782F8827B85F39F0B93FCCF386957795E6
:101690006795B395D9F73EF49095809570956195CF
:1016A0007F4F8F4F9F4F0895E89409C097FB3EF4FA
:1016B00090958095709561957F4F8F4F9F4F99239F
:1016C000A9F0F92F96E9BB279395F695879577951D
:1016D0006795B795F111F8CFFAF4BB0F11F460FFDD
:1016E0001BC06F5F7F4F8F4F9F4F16C0882311F035
:1016F00096E911C0772321F09EE8872F762F05C049
:10170000662371F096E8862F70E060E02AF09A95E3
:10171000660F771F881FDAF7880F9695879597F9D8
:10172000089597F99F6780E870E060E008959FEF63
:1017300080EC089500240A94161617061806090668
:10174000089500240A941216130614060506089537
:10175000092E0394000C11F4882352F0BB0F40F4BF
:10176000BF2B11F460FF04C06F5F7F4F8F4F9F4FFF
:10177000089557FD9058440F551F59F05F3F71F081
:101780004795880F97FB991F61F09F3F79F08795E8
:101790000895121613061406551FF2CF4695F1DF71
:1017A00008C0161617061806991FF1CF8695710501
:1017B000610508940895E894BB2766277727CB0135
:1017C00097F908950BD0C4CFB5DF28F0BADF18F031
:1017D000952309F0A6CFABCF1124EECFCADFA0F33B
:1017E000959FD1F3950F50E0551F629FF001729FB6
:1017F000BB27F00DB11D639FAA27F00DB11DAA1FD5
:10180000649F6627B00DA11D661F829F2227B00D21
:10181000A11D621F739FB00DA11D621F839FA00DAC
:10182000611D221F749F3327A00D611D231F849FFC
:10183000600D211D822F762F6A2F11249F57504053
:101840008AF0E1F088234AF0EE0FFF1FBB1F661FEE
:10185000771F881F91505040A9F79E3F510570F0A7
:1018600060CFAACF5F3FECF3983EDCF38695779587
:101870006795B795F795E7959F5FC1F7FE2B880FA2
:10188000911D9695879597F908958F929F92AF92A3
:10189000BF92CF92DF92EF92FF92CF93DF93EC0152
:1018A000688179818A819B81611571058105910526
:1018B00021F464E279ED8BE597E02DE133EF41E02F
:1018C00050E00E94CC0C49015A019B01AC01A7EAEF
:1018D000B1E40E94B90C6B017C01ACEEB4EFA50140
:1018E00094010E94C70CC60ED71EE81EF91EF7FE13
:1018F00006C081E0C81AD108E10880E8F80AC88269
:10190000D982EA82FB82C6019F77DF91CF91FF9057
:10191000EF90DF90CF90BF90AF909F908F90089501
:101920000E94450C089587E091E00E94450C0895BF
:10193000A0E0B0E08093070190930801A093090113
:10194000B0930A010895F999FECF92BD81BDF89A2E
:10195000992780B50895262FF999FECF1FBA92BD19
:1019600081BD20BD0FB6F894FA9AF99A0FBE019680
:1019700008950E94190AA59F900DB49F900DA49FF1
:10198000800D911D11240895B7FF0C94B90C0E948D
:10199000B90C821B930B0895052E97FB1EF400943F
:1019A0000E94E30C57FD07D00E94EB0C07FC03D00C
:1019B0004EF40C94E30C50954095309521953F4F93
:1019C0004F4F5F4F089590958095709561957F4F2B
:1019D0008F4F9F4F0895A1E21A2EAA1BBB1BFD013A
:1019E0000DC0AA1FBB1FEE1FFF1FA217B307E407FE
:1019F000F50720F0A21BB30BE40BF50B661F771F56
:101A0000881F991F1A9469F7609570958095909535
:0E1A10009B01AC01BD01CF010895F894FFCFFA
:0C1A1E00AA950092009100010000000059
:00000001FF
