:100000000C9446000C946C000C946C000C946C00E6
:100010000C946C000C946C000C9401020C946C0019
:100020000C946C000C946C000C946C000C94C7073E
:100030000C946C000C946C000C9427070C946C00CE
:100040000C946C000C946C000C946C000C946C0080
:100050000C946C000C946C000C946C000C94E907EC
:100060000C946C000C946C006402E00238022E02C6
:100070003502C202B70245092908290842094E097A
:100080003E095509510959091209E40811241FBEF6
:10009000CFEFD8E0DEBFCDBF14BE88E10FB6F89435
:1000A00080936000109260000FBE11E0A0E0B1E00C
:1000B000EEE0FBE102C005900D92AC30B107D9F73C
:1000C00011E0ACE0B1E001C01D92A137B107E1F74A
:1000D0000E94880A0C94850D0C94000081E08093A6
:1000E00012010E947D0360E084E10E94780381E0B8
:1000F0000C94A307CF92DF92EF92FF92CF93DF93FE
:10010000C0E0D0E0C12CD12C76010E948E038F3F3D
:100110002FEF920749F0AA2797FDA095BA2FC80E96
:10012000D91EEA1EFB1E2196CC3281E0D8076CF363
:10013000C701B6012CE231E040E050E00E94B40A71
:1001400030930D0120930C01293582E03807E0F44B
:100150002C32314038F0DF91CF91FF90EF90DF905B
:10016000CF90089581E0809312010E947D0360E0AA
:1001700084E10E94780381E0DF91CF91FF90EF90BE
:10018000DF90CF900C94A307109212010E947D0380
:1001900064E180E00E94780384E00E94A30720913C
:1001A0000C0130910D01D4CFCF92DF92EF92FF92EC
:1001B000CF93DF93C12CD12C7601C0E0D0E00E9418
:1001C0008E038F3F2FEF920749F0AA2797FDA09546
:1001D000BA2FC80ED91EEA1EFB1E2196CC3281E032
:1001E000D8076CF3C701B6012CE231E040E050E0E3
:1001F0000E94B40A30930D0120930C01DF91CF913E
:10020000FF90EF90DF90CF9008950E947D0364E10E
:1002100080E00E94780384E00C94A3070E947D0391
:1002200060E084E10E94780381E00C94A3070895C4
:1002300080E090E008950895DF92EF92FF920F938F
:100240001F93CF93DF93F89414B817B81AB815B862
:1002500018B81BB8529A5A9A14BC85E085BD8FEF26
:1002600087BD22E020936E001092800010928100E2
:100270008FE89BE0909389008093880020936F0023
:100280005398239881EA8093B0002093B100109294
:10029000B4001092B3008BE080BF83E080937F00B6
:1002A00086E080937C0083E880937A0080917A00D6
:1002B000806480937A0080917A0086FDFCCF109252
:1002C0007C0083EA80937A0081E080937B0081E068
:1002D00090E00E945C0D8F3F11F0809366001092B9
:1002E0003A01C1E0C0931301C0935701109231014C
:1002F00010926B0180E990E00E945C0D80933001C8
:1003000080913001887311F0C093300110925B012D
:1003100010925A018FEF90E0909359018093580109
:100320001092360110923701109238011092390163
:1003300081E08093110182E49FE090936A018093B1
:10034000690180EB90E00E945C0DC82F81EB90E08A
:100350000E945C0D2C2F30E0382B30936D012093E0
:100360006C0185E090E00E945C0D8093700189E053
:1003700090E00E945C0D80935C018CE090E00E9414
:100380005C0D80936E0184E190E00E945C0D80938F
:100390006F015BE3E52E51E0F52E04E111E0C0E2D0
:1003A000D0E0CE010E945C0DD82ECE0101960E94B5
:1003B0005C0D2D2D30E0322F2227282BF7012193C1
:1003C00031937F01CE01C0960E945C0DD82ECE01E4
:1003D000C1960E945C0D2D2D30E0322F2227282B54
:1003E000F801219331938F012296CC33D105C9F6C0
:1003F0007894DF91CF911F910F91FF90EF90DF9054
:1004000008951F920F920FB60F9211248F9388E1D7
:100410000FB6F89480936000109260000FBE8F9129
:100420000F900FBE0F901F9018957C01EB01D12CFF
:1004300088248A9464E0B62E76E0972EE3E8AE2E08
:1004400008E110E0F9E2CF2EE0911101F0E0E73091
:10045000F105D0F7EC5CFF4F0C94D30ADD2009F4D2
:10046000FDC0B0921101DD24D394FE010995ECCFBB
:1004700080913A018111EBC0F89490927C00A09297
:100480007A0080917A00806480937A0080917A006B
:1004900086FDFCCF209178003091790078942B3A3A
:1004A00092E039070CF0EDC02938E2E03E070CF08D
:1004B000EFC0273632400CF4CAC0559A549A3B9A82
:1004C0003A9A3D983C98C0CFF89480B7877F80BF18
:1004D00080917A008F7780937A0014B817B81AB891
:1004E00015B818B81BB80FB6F894A895009360001B
:1004F0000FBEC092600080916000806480936000B5
:1005000083B7817F846083BFF89483B7816083BFA2
:100510007894889583B78E7F83BF789410923A0140
:10052000529A5A9A80917A00806880937A0087E57F
:1005300092E00197F1F700C0000080B7886180BFAA
:10054000559A549A3B9A3A9A3D9A3C9AEFE1FEE4C6
:100550003197F1F700C0000080913A01811181C00C
:10056000559854983B983A983D983C986DCF809117
:100570000F01811141C01092B3001092B40010928B
:10058000100162CF4899ECCF559A54983B983A980D
:100590003D983C988FEC97E00197F1F700C0000080
:1005A000559854983B983A983D983C989FEFE1EEC7
:1005B000F4E09150E040F040E1F700C0000044CF8B
:1005C000559854983B9A3A9A3D983C98EFECF7E04E
:1005D0003197F1F700C00000559854983B983A982D
:1005E0003D983C98FFEF21EE84E0F15020408040A0
:1005F000E1F700C0000028CF90910F018091100119
:10060000981709F421CF80910F01809310018091F8
:100610000F01813009F450C080910F011092B30096
:100620008092B4008230D9F18092B3008092B400FD
:100630008FE295E70197F1F700C0000080916F010C
:1006400090916E019093B3008093B400FDCE559AC3
:10065000549A3B983A983D983C98F6CEF701099504
:1006600000CF559A549A3B983A983D983C98FFEFA2
:1006700020E782E0F15020408040E1F700C0000018
:100680006FCF559854983B9A3A9A3D983C98DCCE57
:10069000559854983B983A983D9A3C9AD5CEEFE2BB
:1006A000F5E73197F1F700C0000080915C011092EE
:1006B000B3008093B400C8CE8092B3001092B4000F
:1006C0008FE295E70197F1F700C00000809170017B
:1006D0008093B3001092B400B7CE07C0EFECF7E000
:1006E0003197F1F700C0000001970097B9F708951E
:1006F0008093B3006093B40008958FEF8093B300AC
:100700008093B4008FE090E0EFECF7E03197F1F7E1
:1007100000C0000001970097B9F7089580913A0151
:1007200081111EC0F89487E080937C0083E8809359
:100730007A0080917A00806480937A0080917A00B8
:1007400086FDFCCF809178009091790010927C001A
:1007500023EA20937A0021E020937B007894089587
:100760008FEF9FEF089580913A0181111EC0F89498
:1007700088EC80937C0087E880937A0080917A00EF
:10078000806480937A0080917A0086FDFCCF80910E
:1007900078009091790010927C0023EA20937A00EF
:1007A00021E020937B00789408958FEF9FEF0895C8
:1007B0001F93CF93DF9360E070E080E013EAD1E015
:1007C000C6E0B3E8E1E0F0E020E830E0F894C09360
:1007D0007C00B0937A0090917A00906490937A00B4
:1007E00090917A0096FDFCCF40917800509179006D
:1007F000A42FA17090917A00906490937A009091C8
:100800007A0096FDFCCF40917800509179001092CB
:100810007C0010937A00D0937B0078944170A413ED
:1008200005C0215031092115310581F6AA2339F07F
:100830009F01062E01C0220F0A94EAF7822B6F5FF8
:100840007F4F6830710509F0BFCFDF91CF911F91C5
:10085000089580910001982F990F990F990F98276B
:1008600080910E0121E0280F20930E018695869538
:10087000892792959695977089278093000108950E
:1008800080930001089580913A01811116C0F89477
:1008900086E080937C0083E880937A0080917A00E0
:1008A000806480937A0080917A0086FDFCCF8091ED
:1008B000780090917900789408958FEF9FEF0895D4
:1008C0002F923F924F925F926F927F928F929F9260
:1008D000AF92BF92CF92DF92EF92FF920F931F934E
:1008E000CF93DF9300D000D000D0CDB7DEB78C011E
:1008F000DC0112960D90BC91A02DBE83AD83A4386F
:10090000E3E0BE070CF0CAC080911401909115017C
:100910008A179B0708F4A9C160901601709017010F
:100920006A167B0608F427C26090180170901901BE
:100930006A167B0608F428C260901A0170901B01A9
:100940006A167B0608F429C260901C0170901D0194
:100950006A167B0608F42AC260901E0170901F017F
:100960006A167B0608F48BC160902001709021010B
:100970006A167B0608F423C260902201709023015E
:100980006A167B0608F424C2609024017090250149
:100990006A167B0608F425C2609026017090270134
:1009A0006A167B0608F426C260902801709029011F
:1009B0006A167B0608F427C260902A0170902B010A
:1009C0006A167B0608F42DC260902C0170902D01F0
:1009D0006A167B0608F42EC260902E0170902F01DB
:1009E0006A167B0608F42FC280E090E0A0EDB0E428
:1009F00089839A83AB83BC838CE0E82EF12CF701CA
:100A0000EE0FFF1FEC5EFE4F80819181B301681BEA
:100A1000790B80E090E00E940D0C9B01AC010E94DC
:100A2000100B6B017C01AD81BE81BD01882777FD74
:100A30008095982F0E940F0C4B015C01B30180E060
:100A400090E00E940D0C2B013C0129813A814B81E1
:100A50005C81C701B6010E949B0C9B01AC01C301E4
:100A6000B2010E940F0B9B01AC01C501B4010E94B1
:100A70000F0B20E030E040E251E40E949B0C0E940A
:100A8000DC0B5B01C701B6010E94DC0BAB01BC01B2
:100A9000C501BA010E94A00A762EE8C077247A9494
:100AA000D801AD90BC9080913B0190913C018A159A
:100AB0009B0508F46FC000913D0110913E010A159D
:100AC0001B0508F45CC100913F01109140010A151B
:100AD0001B0508F45DC100914101109142010A1506
:100AE0001B0508F45EC100914301109144010A15F1
:100AF0001B0508F45FC100914501109146010A15DC
:100B00001B0508F4D8C000914701109148010A154F
:100B10001B0508F458C10091490110914A010A15BA
:100B20001B0508F459C100914B0110914C010A15A5
:100B30001B0508F45AC100914D0110914E010A1590
:100B40001B0508F45BC100914F01109150010A157B
:100B50001B0508F45CC100915101109152010A1566
:100B60001B0508F459C100915301109154010A1555
:100B70001B0508F45AC100915501109156010A1540
:100B80001B0508F45BC11AE5BFEF7B1207C081E2C9
:100B9000810F52C010E0BFEF7B16C9F3ED81FE81DB
:100BA000BF01882777FD8095982F0E940F0C6B015D
:100BB0007C01672D70E080E090E00E940D0C4B01FD
:100BC0005C01A701960160E070E081E694E40E9478
:100BD0000F0B9B01AC01C501B4010E949B0C4B01A2
:100BE0005C01612F70E080E090E00E940D0C2B0111
:100BF0003C0120E030E04FE254E4C701B6010E941E
:100C00000F0B9B01AC01C301B2010E949B0C9B0125
:100C1000AC01C501B4010E94100B20E030E048E4B3
:100C200053E40E94740B20E030E044E052E40E9460
:100C3000100B0E94E10B862F26960FB6F894DEBFAC
:100C40000FBECDBFDF91CF911F910F91FF90EF901D
:100C5000DF90CF90BF90AF909F908F907F906F90DC
:100C60005F904F903F902F900895712CED81FE8101
:100C7000ED3BF2400CF014CF81E2870DDDCF65E053
:100C800085E090E07C01F1E0EF1AF10870E080E08F
:100C900090E00E940D0C20E030E040E05FE30E9415
:100CA0009B0C20E030E0A9010E94100B69837A833D
:100CB0008B839C83A4CE75E0672EE5E0F0E0EE0F19
:100CC000FF1FE75CFE4F80819181B801681B790BA3
:100CD00080E090E00E940D0C9B01AC010E94100B83
:100CE0006B017C01B501882777FD8095982F0E94C4
:100CF0000F0C4B015C01B80180E090E00E940D0CEC
:100D00001B012C01662D70E080E090E00E940D0C2C
:100D100020E030E040E05FE30E949B0C20E030E008
:100D2000A9010E94100BA70196010E949B0C9B0138
:100D3000AC01C201B1010E940F0B9B01AC01C501C6
:100D4000B4010E940F0B20E030E040E251E40E9429
:100D50009B0C0E94DC0B8B01C701B6010E94DC0BCF
:100D6000AB01BC01C801BA010E94A00A162F6F3F57
:100D700009F011CF81CF61E081E090E083CF66245C
:100D80006394E1E0F0E09BCF62E082E090E07ACF14
:100D9000A2E06A2EE2E0F0E092CF63E083E090E030
:100DA00071CFF3E06F2EE3E0F0E089CF64E084E000
:100DB00090E068CFE4E06E2EE4E0F0E080CF66E003
:100DC00086E090E05FCF66E0662EE6E0F0E077CF69
:100DD00067E087E090E056CF57E0652EE7E0F0E06F
:100DE0006ECF68E088E090E04DCF48E0642EE8E008
:100DF000F0E065CF69E089E090E044CF39E0632E10
:100E0000E9E0F0E05CCF6AE08AE090E03BCF2AE0E6
:100E1000622EEAE0F0E053CF9BE0692EEBE0F0E0D9
:100E20004ECF6BE08BE090E02DCF8CE0682EECE0B5
:100E3000F0E045CF6CE08CE090E024CFBDE06B2E7D
:100E4000EDE0F0E03CCF6DE08DE090E01BCF1F9235
:100E50000F920FB60F9211242F933F934F935F93EE
:100E60006F937F938F939F93AF93BF93EF93FF9372
:100E700080915A0190915B01209158013091590164
:100E8000820F931F90935B0180935A018FEF90E044
:100E900090935901809358018FEF87BD809136015F
:100EA00090913701A0913801B09139010196A11DAF
:100EB000B11D8093360190933701A0933801B09310
:100EC000390180913A0181110FC08091690190919F
:100ED0006A0120915A0130915B018217930720F437
:100EE00080911101843089F0FF91EF91BF91AF9112
:100EF0009F918F917F916F915F914F913F912F9132
:100F00000F900FBE0F901F901895E0910301F09184
:100F100004010995009741F30E94050A811109C057
:100F20000E944C0D9927909359018093580187BDD9
:100F3000DBCFE0910101F0910201099510925B0174
:100F400010925A01D1CF80FF11C0559A81FF11C074
:100F5000549A82FF11C03B9A83FF11C03A9A84FFD2
:100F600011C03D9A85FD11C03C980895559881FDAA
:100F7000EFCF549882FDEFCF3B9883FDEFCF3A98A7
:100F800084FDEFCF3D9885FFEFCF3C9A08951F92E7
:100F90000F920FB60F9211248F939F93109281009E
:100FA000109285001092840081E080931301809359
:100FB000570110923A0110927C0093EA90937A00C4
:100FC00080937B009F918F910F900FBE0F901F9089
:100FD00018951F920F920FB60F9211242F933F93E3
:100FE0004F935F936F937F938F939F93AF93BF9331
:100FF000CF93DF93EF93FF9320918400309185008E
:1010000041E040933A01809113018823A9F11092A5
:101010008500109284004093810010926B01109221
:101020001301809157018823A1F080917A0086FDF9
:10103000FCCF809178009091790090933501809356
:10104000340181E080937C0093EA90937A0080934E
:101050007B00FF91EF91DF91CF91BF91AF919F9175
:101060008F917F916F915F914F913F912F910F9051
:101070000FBE0F901F901895C901875891098437AA
:10108000994008F04FC026583109A4EFB0E00E9403
:10109000910AAA27BB27883008F47BC0409313012C
:1010A00080915701811152C080913101E82FF0E009
:1010B000E35AFE4F90916B0190838F5F80933101D3
:1010C0008C3039F6109281001092850010928400C5
:1010D0004093570110923A01C0916701D091680185
:1010E0008DE591E00E94EC09C817D90709F0B1CF4E
:1010F0008091660187FF5EC098E7980F933030F0CB
:10110000539823981092B4001092B30090E0FC0121
:10111000E058F109EB30F10508F09BCFE55CFF4F9B
:101120000C94D30A109281001092850010928400D2
:10113000409313014093570110923A0110927C00A2
:1011400083EA80937A0040937B0083CF80917A007A
:1011500086FDFCCF809178009091790090933301C7
:101160008093320110927C0083EA80937A0081E0C0
:1011700080937B0090916B019923B9F010928100CC
:1011800010928500109284008093570110923A01CA
:1011900060CF21E030E001C0220F8A95EAF780910C
:1011A0006B01822B80936B0154CF109257011092E8
:1011B00031014FCFE0910501F091060162E371E04A
:1011C0008DE591E0099545CF80915D01823009F46C
:1011D000DCC008F4B9C0833009F4C5C0843009F01C
:1011E000B0C080910F0190916301833009F4E2C097
:1011F000809162011092100123E020930F018093EF
:101200006E0190936F0180911101863009F421CF16
:10121000539A239A1092B4001092B30086E0809300
:10122000110117CF80911101863099F0539A239ABA
:101230001092B4001092B300559854983B983A9885
:101240003D983C9810920F011092100186E0809317
:10125000110181E090E000905D0102C0880F991FAC
:101260000A94E2F720916C0130916D01822393235F
:10127000892B09F086C010920F01EBCE81E080939C
:101280001101E7CEE0E0F0E0099580916E008D7FDE
:1012900080936E0016BCE0E0F0E709951092110112
:1012A000D8CE82E080931101D4CE85E080931101E5
:1012B000D0CE80911101833009F4CBCE8091110101
:1012C000843009F4C6CE539A239A1092B400109237
:1012D000B30083E080931101BCCE80911101863070
:1012E00009F0B7CE60916C0180EB90E00E94640D34
:1012F00060916D0181EB90E00E94640D609170013E
:1013000085E090E00E94640D60915C0189E090E0CE
:101310000E94640D60916E018CE090E00E94640D6B
:1013200060916F0184E190E00E94640D53982398CE
:101330001092B4001092B30081E08093110180916B
:101340005D01811160CF85CE882339F28130C9F7E4
:1013500080915E0190915F0190936D0180936C018B
:1013600010920F0150CF80910F01823071F1809166
:1013700061011092100192E090930F0180935C0143
:1013800042CF81E080930F0164CE80910F018130C4
:1013900051F0809160011092100191E090930F0143
:1013A0008093700130CF809160019091700189131A
:1013B000F2CF29CF80916F0198131ACF80916201EB
:1013C00020916E01821316CF1ECF80916101909102
:1013D0005C018913CECF17CFFC012AE08FEF9FEF7E
:1013E00031918327082E8295807F8025092E982FA2
:1013F00082958F700826869598278927880F880FF1
:10140000880F8025215061F708950FB6F894A4B194
:10141000209130012A2B24B921E030913001203075
:1014200029F0000025B1232B25B904C000000000DD
:10143000000000C0000000000000309525B123230B
:1014400025B92EEA2A95F1F72BEE30B735FF0AC001
:10145000A4B930913001309525B1232325B90FBEB1
:1014600080E0089500002A9581F721E03091300155
:10147000203029F0000025B1232B25B904C000003D
:101480000000000000C0000000000000309525B101
:10149000232325B9000024E52A95F1F7FC018CE00F
:1014A000619170E0660F771F616072609AE041E0C1
:1014B00050E09A0126233723232B3091300120302E
:1014C00029F0000025B1232B25B904C0000000003D
:1014D000000000C0000000000000309525B123236B
:1014E00025B9000021E52A95F1F7440F551F9A957B
:1014F00001F78A95A9F620B7206120BFA4B93091E1
:101500003001309525B1232325B90FBE81E0089520
:101510000E941C016AE770E08EE690E00E941502CE
:101520000895A29FB001B39FC001A39F700D811DBC
:101530001124911DB29F700D811D1124911D0895DC
:1015400097FB072E16F4009407D077FD09D00E9470
:10155000D90A07FC05D03EF4909581959F4F0895D8
:10156000709561957F4F0895052E97FB1EF40094AA
:101570000E94CB0A57FD07D00E94ED0A07FC03D05A
:101580004EF40C94CB0A50954095309521953F4FE1
:101590004F4F5F4F089590958095709561957F4F5F
:1015A0008F4F9F4F0895EE0FFF1F0590F491E02D90
:1015B0000994AA1BBB1B51E107C0AA1FBB1FA6179A
:1015C000B70710F0A61BB70B881F991F5A95A9F7EC
:1015D00080959095BC01CD010895A1E21A2EAA1B19
:1015E000BB1BFD010DC0AA1FBB1FEE1FFF1FA217D3
:1015F000B307E407F50720F0A21BB30BE40BF50BD0
:10160000661F771F881F991F1A9469F76095709558
:10161000809590959B01AC01BD01CF010895505874
:10162000BB27AA270ED04DC13ED130F043D120F0C8
:1016300031F49F3F11F41EF433C10EF4E095E7FB43
:1016400029C1E92F4FD180F3BA17620773078407C6
:10165000950718F071F49EF567C10EF4E0950B2E16
:10166000BA2FA02D0B01B90190010C01CA01A001F4
:101670001124FF27591B99F0593F50F4503E68F14F
:101680001A16F040A22F232F342F4427585FF3CF90
:10169000469537952795A795F0405395C9F77EF461
:1016A0001F16BA0B620B730B840BBAF09150A1F0AA
:1016B000FF0FBB1F661F771F881FC2F70EC0BA0F30
:1016C000621F731F841F48F4879577956795B795B8
:1016D000F7959E3F08F0B3CF9395880F08F09927B0
:1016E000EE0F9795879508950CD0EBC0E3D040F0AE
:1016F000DAD030F021F45F3F19F0CCC0511115C1A0
:10170000CFC0F0D098F39923C9F35523B1F3951BBB
:10171000550BBB27AA2762177307840738F09F5F12
:101720005F4F220F331F441FAA1FA9F333D00E2E81
:101730003AF0E0E830D091505040E695001CCAF7EE
:1017400029D0FE2F27D0660F771F881FBB1F2617B3
:1017500037074807AB07B0E809F0BB0B802DBF0186
:10176000FF2793585F4F2AF09E3F510568F092C0C3
:10177000DCC05F3FECF3983EDCF386957795679588
:10178000B795F7959F5FC9F7880F911D9695879537
:1017900097F90895E1E0660F771F881FBB1F621756
:1017A00073078407BA0720F0621B730B840BBA0B14
:1017B000EE1F88F7E095089504D06894B111B5C084
:1017C000089598D088F09F5790F0B92F9927B75176
:1017D000A0F0D1F0660F771F881F991F1AF0BA95F5
:1017E000C9F712C0B13081F09FD0B1E008959CC01C
:1017F000672F782F8827B85F39F0B93FCCF38695EB
:1018000077956795B395D9F73EF490958095709547
:1018100061957F4F8F4F9F4F0895E89409C097FBC4
:101820003EF490958095709561957F4F8F4F9F4FB7
:101830009923A9F0F92F96E9BB279395F6958795FB
:1018400077956795B795F111F8CFFAF4BB0F11F4BE
:1018500060FF1BC06F5F7F4F8F4F9F4F16C0882365
:1018600011F096E911C0772321F09EE8872F762F9B
:1018700005C0662371F096E8862F70E060E02AF0DC
:101880009A95660F771F881FDAF7880F96958795C8
:1018900097F9089597F99F6780E870E060E00895F0
:1018A0009FEF80EC089500240A9416161706180678
:1018B0000906089500240A94121613061406050654
:1018C0000895092E0394000C11F4882352F0BB0FE5
:1018D00040F4BF2B11F460FF04C06F5F7F4F8F4F48
:1018E0009F4F089557FD9058440F551F59F05F3F83
:1018F00071F04795880F97FB991F61F09F3F79F032
:1019000087950895121613061406551FF2CF4695B3
:10191000F1DF08C0161617061806991FF1CF869535
:101920007105610508940895E894BB276627772719
:10193000CB0197F908950BD0C4CFB5DF28F0BADFFB
:1019400018F0952309F0A6CFABCF1124EECFCADF54
:10195000A0F3959FD1F3950F50E0551F629FF001C2
:10196000729FBB27F00DB11D639FAA27F00DB11D1B
:10197000AA1F649F6627B00DA11D661F829F2227A4
:10198000B00DA11D621F739FB00DA11D621F839F2B
:10199000A00D611D221F749F3327A00D611D231F01
:1019A000849F600D211D822F762F6A2F11249F574F
:1019B00050408AF0E1F088234AF0EE0FFF1FBB1F72
:1019C000661F771F881F91505040A9F79E3F510511
:1019D00070F060CFAACF5F3FECF3983EDCF38695C2
:1019E00077956795B795F795E7959F5FC1F7FE2BBC
:1019F000880F911D9695879597F908958F929F92DC
:101A0000AF92BF92CF92DF92EF92FF92CF93DF938C
:101A1000EC01688179818A819B816115710581055D
:101A2000910521F464E279ED8BE597E02DE133EF48
:101A300041E050E00E94B40A49015A019B01AC0107
:101A4000A7EAB1E40E94720D6B017C01ACEEB4EF29
:101A5000A50194010E94800DC60ED71EE81EF91E36
:101A6000F7FE06C081E0C81AD108E10880E8F80A4C
:101A7000C882D982EA82FB82C6019F77DF91CF912B
:101A8000FF90EF90DF90CF90BF90AF909F908F909E
:101A900008950E94FE0C089587E091E00E94FE0CDC
:101AA0000895A0E0B0E08093070190930801A0930F
:101AB0000901B0930A010895F999FECF92BD81BD45
:101AC000F89A992780B50895262FF999FECF1FBA65
:101AD00092BD81BD20BD0FB6F894FA9AF99A0FBE57
:101AE000019608950E94910AA59F900DB49F900DB4
:101AF000A49F800D911D11240895B7FF0C94720DC1
:0E1B00000E94720D821B930B0895F894FFCF84
:0C1B0E00AA1B01180117010100000000D3
:00000001FF
